{
  "contractName": "DyDxFlashLoan",
  "abi": [
    {
      "inputs": [],
      "payable": false,
      "stateMutability": "nonpayable",
      "type": "constructor"
    },
    {
      "constant": true,
      "inputs": [],
      "name": "DAI",
      "outputs": [
        {
          "internalType": "address",
          "name": "",
          "type": "address"
        }
      ],
      "payable": false,
      "stateMutability": "view",
      "type": "function"
    },
    {
      "constant": true,
      "inputs": [],
      "name": "SAI",
      "outputs": [
        {
          "internalType": "address",
          "name": "",
          "type": "address"
        }
      ],
      "payable": false,
      "stateMutability": "view",
      "type": "function"
    },
    {
      "constant": true,
      "inputs": [],
      "name": "USDC",
      "outputs": [
        {
          "internalType": "address",
          "name": "",
          "type": "address"
        }
      ],
      "payable": false,
      "stateMutability": "view",
      "type": "function"
    },
    {
      "constant": true,
      "inputs": [],
      "name": "WETH",
      "outputs": [
        {
          "internalType": "address",
          "name": "",
          "type": "address"
        }
      ],
      "payable": false,
      "stateMutability": "view",
      "type": "function"
    },
    {
      "constant": true,
      "inputs": [
        {
          "internalType": "address",
          "name": "",
          "type": "address"
        }
      ],
      "name": "currencies",
      "outputs": [
        {
          "internalType": "uint256",
          "name": "",
          "type": "uint256"
        }
      ],
      "payable": false,
      "stateMutability": "view",
      "type": "function"
    },
    {
      "constant": true,
      "inputs": [
        {
          "internalType": "address",
          "name": "token",
          "type": "address"
        }
      ],
      "name": "tokenToMarketId",
      "outputs": [
        {
          "internalType": "uint256",
          "name": "",
          "type": "uint256"
        }
      ],
      "payable": false,
      "stateMutability": "view",
      "type": "function"
    }
  ],
  "bytecode": "0x6080604052731e0447b19bb6ecfdae1e4ae1694b0c3659614e4e6000806101000a81548173ffffffffffffffffffffffffffffffffffffffff021916908373ffffffffffffffffffffffffffffffffffffffff16021790555073c02aaa39b223fe8d0a0e5c4f27ead9083c756cc2600160006101000a81548173ffffffffffffffffffffffffffffffffffffffff021916908373ffffffffffffffffffffffffffffffffffffffff1602179055507389d24a6b4ccb1b6faa2625fe562bdd9a23260359600260006101000a81548173ffffffffffffffffffffffffffffffffffffffff021916908373ffffffffffffffffffffffffffffffffffffffff16021790555073a0b86991c6218b36c1d19d4a2e9eb0ce3606eb48600360006101000a81548173ffffffffffffffffffffffffffffffffffffffff021916908373ffffffffffffffffffffffffffffffffffffffff160217905550736b175474e89094c44da98b954eedeac495271d0f600460006101000a81548173ffffffffffffffffffffffffffffffffffffffff021916908373ffffffffffffffffffffffffffffffffffffffff1602179055503480156101b857600080fd5b50600160056000600160009054906101000a900473ffffffffffffffffffffffffffffffffffffffff1673ffffffffffffffffffffffffffffffffffffffff1673ffffffffffffffffffffffffffffffffffffffff16815260200190815260200160002081905550600260056000600260009054906101000a900473ffffffffffffffffffffffffffffffffffffffff1673ffffffffffffffffffffffffffffffffffffffff1673ffffffffffffffffffffffffffffffffffffffff16815260200190815260200160002081905550600360056000600360009054906101000a900473ffffffffffffffffffffffffffffffffffffffff1673ffffffffffffffffffffffffffffffffffffffff1673ffffffffffffffffffffffffffffffffffffffff16815260200190815260200160002081905550600460056000600460009054906101000a900473ffffffffffffffffffffffffffffffffffffffff1673ffffffffffffffffffffffffffffffffffffffff1673ffffffffffffffffffffffffffffffffffffffff1681526020019081526020016000208190555061041d806103646000396000f3fe608060405234801561001057600080fd5b50600436106100625760003560e01c80634b3fb7f8146100675780636036cba31461008557806389a30271146100b5578063ad5c4648146100d3578063b8268788146100f1578063e0bab4c414610121575b600080fd5b61006f61013f565b60405161007c9190610320565b60405180910390f35b61009f600480360361009a9190810190610299565b610165565b6040516100ac919061035b565b60405180910390f35b6100bd61017d565b6040516100ca9190610320565b60405180910390f35b6100db6101a3565b6040516100e89190610320565b60405180910390f35b61010b60048036036101069190810190610299565b6101c9565b604051610118919061035b565b60405180910390f35b61012961025e565b6040516101369190610320565b60405180910390f35b600260009054906101000a900473ffffffffffffffffffffffffffffffffffffffff1681565b60056020528060005260406000206000915090505481565b600360009054906101000a900473ffffffffffffffffffffffffffffffffffffffff1681565b600160009054906101000a900473ffffffffffffffffffffffffffffffffffffffff1681565b600080600560008473ffffffffffffffffffffffffffffffffffffffff1673ffffffffffffffffffffffffffffffffffffffff1681526020019081526020016000205490506000811415610252576040517f08c379a00000000000000000000000000000000000000000000000000000000081526004016102499061033b565b60405180910390fd5b60018103915050919050565b600460009054906101000a900473ffffffffffffffffffffffffffffffffffffffff1681565b600081359050610293816103c3565b92915050565b6000602082840312156102ab57600080fd5b60006102b984828501610284565b91505092915050565b6102cb81610387565b82525050565b60006102de601c83610376565b91507f466c6173684c6f616e3a20556e737570706f7274656420746f6b656e000000006000830152602082019050919050565b61031a816103b9565b82525050565b600060208201905061033560008301846102c2565b92915050565b60006020820190508181036000830152610354816102d1565b9050919050565b60006020820190506103706000830184610311565b92915050565b600082825260208201905092915050565b600061039282610399565b9050919050565b600073ffffffffffffffffffffffffffffffffffffffff82169050919050565b6000819050919050565b6103cc81610387565b81146103d757600080fd5b5056fea365627a7a723158201d29bccc371aaad28ae1163d30b90fe19afe3b6a72c8889458ba9e3a0c80298b6c6578706572696d656e74616cf564736f6c63430005100040",
  "source": "pragma solidity ^0.5.0;\npragma experimental ABIEncoderV2;\n\n\ninterface Structs {\n    struct SwapDescription {\n        IERC20 srcToken;\n        IERC20 dstToken;\n        address srcReceiver;\n        address dstReceiver;\n        uint256 amount;\n        uint256 minReturnAmount;\n        uint256 guaranteedAmount;\n        uint256 flags;\n        address referrer;\n        bytes permit;\n    }\n\n    struct Val {\n        uint256 value;\n    }\n\n    enum ActionType {\n        Deposit, // supply tokens\n        Withdraw, // borrow tokens\n        Transfer, // transfer balance between accounts\n        Buy, // buy an amount of some token (externally)\n        Sell, // sell an amount of some token (externally)\n        Trade, // trade tokens against another account\n        Liquidate, // liquidate an undercollateralized or expiring account\n        Vaporize, // use excess tokens to zero-out a completely negative account\n        Call       // send arbitrary data to an address\n    }\n\n    enum AssetDenomination {\n        Wei // the amount is denominated in wei\n    }\n\n    enum AssetReference {\n        Delta // the amount is given as a delta from the current value\n    }\n\n    struct AssetAmount {\n        bool sign; // true if positive\n        AssetDenomination denomination;\n        AssetReference ref;\n        uint256 value;\n    }\n\n    struct ActionArgs {\n        ActionType actionType;\n        uint256 accountId;\n        AssetAmount amount;\n        uint256 primaryMarketId;\n        uint256 secondaryMarketId;\n        address otherAddress;\n        uint256 otherAccountId;\n        bytes data;\n    }\n\n    struct Info {\n        address owner;  // The address that owns the account\n        uint256 number; // A nonce that allows a single address to control many accounts\n    }\n\n    struct Wei {\n        bool sign; // true if positive\n        uint256 value;\n    }\n}\n\ncontract DyDxPool is Structs {\n    function getAccountWei(Info memory account, uint256 marketId) public view returns (Wei memory);\n    function operate(Info[] memory, ActionArgs[] memory) public;\n}\n\n/**\n * @dev Interface of the ERC20 standard as defined in the EIP. Does not include\n * the optional functions; to access them see `ERC20Detailed`.\n */\ninterface IERC20 {\n    function totalSupply() external view returns (uint256);\n\n    function balanceOf(address account) external view returns (uint256);\n\n    function transfer(address recipient, uint256 amount) external returns (bool);\n\n    function allowance(address owner, address spender) external view returns (uint256);\n\n    function approve(address spender, uint256 amount) external returns (bool);\n\n    function transferFrom(address sender, address recipient, uint256 amount) external returns (bool);\n\n    event Transfer(address indexed from, address indexed to, uint256 value);\n    event Approval(address indexed owner, address indexed spender, uint256 value);\n}\n\ncontract DyDxFlashLoan is Structs {\n    DyDxPool pool = DyDxPool(0x1E0447b19BB6EcFdAe1e4AE1694b0C3659614e4e);\n\n    address public WETH = 0xC02aaA39b223FE8D0A0e5C4F27eAD9083C756Cc2;\n    address public SAI = 0x89d24A6b4CcB1B6fAA2625fE562bDD9a23260359;\n    address public USDC = 0xA0b86991c6218b36c1d19D4a2e9Eb0cE3606eB48;\n    address public DAI = 0x6B175474E89094C44Da98b954EedeAC495271d0F;\n    mapping(address => uint256) public currencies;\n\n    constructor() public {\n        currencies[WETH] = 1;\n        currencies[SAI] = 2;\n        currencies[USDC] = 3;\n        currencies[DAI] = 4;\n    }\n\n    modifier onlyPool() {\n        require(\n            msg.sender == address(pool),\n            \"FlashLoan: could be called by DyDx pool only\"\n        );\n        _;\n    }\n\n    function tokenToMarketId(address token) public view returns (uint256) {\n        uint256 marketId = currencies[token];\n        require(marketId != 0, \"FlashLoan: Unsupported token\");\n        return marketId - 1;\n    }\n\n    // the DyDx will call `callFunction(address sender, Info memory accountInfo, bytes memory data) public` after during `operate` call\n    function flashloan(address token, uint256 amount, bytes memory data)\n    internal\n    {\n        IERC20(token).approve(address(pool), amount + 1);\n        Info[] memory infos = new Info[](1);\n        ActionArgs[] memory args = new ActionArgs[](3);\n\n        infos[0] = Info(address(this), 0);\n\n        AssetAmount memory wamt = AssetAmount(\n            false,\n            AssetDenomination.Wei,\n            AssetReference.Delta,\n            amount\n        );\n        ActionArgs memory withdraw;\n        withdraw.actionType = ActionType.Withdraw;\n        withdraw.accountId = 0;\n        withdraw.amount = wamt;\n        withdraw.primaryMarketId = tokenToMarketId(token);\n        withdraw.otherAddress = address(this);\n\n        args[0] = withdraw;\n\n        ActionArgs memory call;\n        call.actionType = ActionType.Call;\n        call.accountId = 0;\n        call.otherAddress = address(this);\n        call.data = data;\n\n        args[1] = call;\n\n        ActionArgs memory deposit;\n        AssetAmount memory damt = AssetAmount(\n            true,\n            AssetDenomination.Wei,\n            AssetReference.Delta,\n            amount + 1\n        );\n        deposit.actionType = ActionType.Deposit;\n        deposit.accountId = 0;\n        deposit.amount = damt;\n        deposit.primaryMarketId = tokenToMarketId(token);\n        deposit.otherAddress = address(this);\n\n        args[2] = deposit;\n\n        pool.operate(infos, args);\n    }\n}\n\n// SPDX-License-Identifier: MIT\n\ncontract TradingBot is DyDxFlashLoan {\n    uint256 public loan;\n\n    // Addresses\n    address payable OWNER;\n\n    // OneInch Config\n    address ONE_INCH_ADDRESS = 0x111111125434b319222CdBf8C261674aDB56F3ae;\n\n    // ZRX Config\n    address ZRX_EXCHANGE_ADDRESS = 0x61935CbDd02287B511119DDb11Aeb42F1593b7Ef;\n    address ZRX_ERC20_PROXY_ADDRESS = 0x95E6F48254609A6ee006F7D493c8e5fB97094ceF;\n    address ZRX_STAKING_PROXY = 0xa26e80e7Dea86279c6d778D702Cc413E6CFfA777; // Fee collector\n\n    // Modifiers\n    modifier onlyOwner() {\n        require(msg.sender == OWNER, \"caller is not the owner!\");\n        _;\n    }\n\n    // Allow the contract to receive Ether\n    function () external payable {}\n\n    constructor() public payable {\n        _getWeth(msg.value);\n        _approveWeth(msg.value);\n        OWNER = msg.sender;\n    }\n\n    function getFlashloan(address flashToken, uint256 flashAmount, address arbToken, bytes calldata zrxData, bytes calldata oneInchData) external payable onlyOwner {\n        uint256 balanceBefore = IERC20(flashToken).balanceOf(address(this));\n        bytes memory data = abi.encode(flashToken, flashAmount, balanceBefore, arbToken, zrxData, oneInchData);\n        flashloan(flashToken, flashAmount, data);\n        // execution goes to `callFunction`\n\n        // and this point we have succefully paid the dept\n    }\n\n    function callFunction(\n        address, /* sender */\n        Info calldata, /* accountInfo */\n        bytes calldata data\n    ) external onlyPool {\n        (address flashToken, uint256 flashAmount, uint256 balanceBefore, address arbToken, bytes memory zrxData, bytes memory oneInchData) = abi\n        .decode(data, (address, uint256, uint256, address, bytes, bytes));\n        uint256 balanceAfter = IERC20(flashToken).balanceOf(address(this));\n        require(\n            balanceAfter - balanceBefore == flashAmount,\n            \"contract did not get the loan\"\n        );\n        loan = balanceAfter;\n\n        // do whatever you want with the money\n        // the dept will be automatically withdrawn from this contract at the end of execution\n        _arb(flashToken, arbToken, flashAmount, zrxData, oneInchData);\n    }\n\n    function arb(address _fromToken, address _toToken, uint256 _fromAmount, bytes memory _0xData, bytes memory _oneInchData) onlyOwner payable public {\n        _arb(_fromToken, _toToken, _fromAmount, _0xData, _oneInchData);\n    }\n\n    function _arb(address _fromToken, address _toToken, uint256 _fromAmount, bytes memory _0xData, bytes memory _oneInchData) internal {\n        // Track original balance\n        uint256 _startBalance = IERC20(_fromToken).balanceOf(address(this));\n\n        // Perform the arb trade\n        _trade(_fromToken, _toToken, _fromAmount, _0xData, _oneInchData);\n\n        // Track result balance\n        uint256 _endBalance = IERC20(_fromToken).balanceOf(address(this));\n\n        // Require that arbitrage is profitable\n        require(_endBalance > _startBalance, \"End balance must exceed start balance.\");\n    }\n\n    function trade(address _fromToken, address _toToken, uint256 _fromAmount, bytes memory _0xData, bytes memory _1inchData) onlyOwner payable public {\n        _trade(_fromToken, _toToken, _fromAmount, _0xData, _1inchData);\n    }\n\n    function _trade(address _fromToken, address _toToken, uint256 _fromAmount, bytes memory _0xData, bytes memory _1inchData) internal {\n        // Track the balance of the token RECEIVED from the trade\n        uint256 _beforeBalance = IERC20(_toToken).balanceOf(address(this));\n\n        // Swap on 0x: give _fromToken, receive _toToken\n        _zrxSwap(_fromToken, _fromAmount, _0xData);\n\n        // Calculate the how much of the token we received\n        uint256 _afterBalance = IERC20(_toToken).balanceOf(address(this));\n\n        // Read _toToken balance after swap\n        uint256 _toAmount = _afterBalance - _beforeBalance;\n\n        // Swap on 1Inch: give _toToken, receive _fromToken\n        // _oneInchSwap(_toToken, _toAmount, _1inchData);\n    }\n\n    function zrxSwap(address _from, uint256 _amount, bytes memory _calldataHexString) onlyOwner public payable {\n        _zrxSwap(_from, _amount, _calldataHexString);\n    }\n\n    function _zrxSwap(address _from, uint256 _amount, bytes memory _calldataHexString) internal {\n        // Approve tokens\n        IERC20 _fromIERC20 = IERC20(_from);\n        _fromIERC20.approve(ZRX_ERC20_PROXY_ADDRESS, _amount);\n\n        // Swap tokens\n        address(ZRX_EXCHANGE_ADDRESS).call.value(msg.value)(_calldataHexString);\n\n        // Reset approval\n        _fromIERC20.approve(ZRX_ERC20_PROXY_ADDRESS, 0);\n    }\n\n    function oneInchSwap(address _from, uint256 _amount, bytes memory _oneInchCallData) onlyOwner public payable {\n        _oneInchSwap(_from, _amount, _oneInchCallData);\n    }\n\n    //_oneInchCalldata is a tx data from /swap endpoint of 1inch api\n    function _oneInchSwap(address _from, uint256 _amount, bytes memory _oneInchCallData) internal {\n        // Setup contracts\n        IERC20 _fromIERC20 = IERC20(_from);\n\n        // Approve tokens\n        _fromIERC20.approve(ONE_INCH_ADDRESS, _amount);\n\n        // Swap tokens: give _from, get _to\n        ONE_INCH_ADDRESS.call.value(msg.value)(_oneInchCallData);\n\n        // Reset approval\n        _fromIERC20.approve(ONE_INCH_ADDRESS, 0);\n    }\n\n    function getWeth() public payable onlyOwner {\n        _getWeth(msg.value);\n    }\n\n    function _getWeth(uint256 _amount) internal {\n        (bool success,) = WETH.call.value(_amount)(\"\");\n        require(success, \"failed to get weth\");\n    }\n\n    function approveWeth(uint256 _amount) public onlyOwner {\n        _approveWeth(_amount);\n    }\n\n    function _approveWeth(uint256 _amount) internal {\n        IERC20(WETH).approve(ZRX_STAKING_PROXY, _amount);\n    }\n\n    // KEEP THIS FUNCTION IN CASE THE CONTRACT RECEIVES TOKENS!\n    function withdrawToken(address _tokenAddress) public onlyOwner {\n        uint256 balance = IERC20(_tokenAddress).balanceOf(address(this));\n        IERC20(_tokenAddress).transfer(OWNER, balance);\n    }\n\n    // KEEP THIS FUNCTION IN CASE THE CONTRACT KEEPS LEFTOVER ETHER!\n    function withdrawEther() public onlyOwner {\n        address self = address(this);\n        // workaround for a possible solidity bug\n        uint256 balance = self.balance;\n        address(OWNER).transfer(balance);\n    }\n}",
  "sourcePath": "/Users/kirillmadorin/Desktop/Projects/1inch-hack/arb-bot/contracts/TradingBot.sol",
  "compiler": {
    "name": "solc",
    "version": "0.5.16+commit.9c3226ce.Emscripten.clang"
  },
  "schemaVersion": "3.3.2",
  "updatedAt": "2020-12-17T16:19:19.975Z",
  "devdoc": {
    "methods": {}
  },
  "userdoc": {
    "methods": {}
  }
}