{
  "contractName": "TradingBot",
  "abi": [
    {
      "inputs": [],
      "payable": true,
      "stateMutability": "payable",
      "type": "constructor"
    },
    {
      "anonymous": false,
      "inputs": [
        {
          "indexed": false,
          "internalType": "uint256",
          "name": "balance",
          "type": "uint256"
        }
      ],
      "name": "EndBalance",
      "type": "event"
    },
    {
      "anonymous": false,
      "inputs": [
        {
          "indexed": false,
          "internalType": "uint256",
          "name": "balance",
          "type": "uint256"
        }
      ],
      "name": "FlashTokenAfterBalance",
      "type": "event"
    },
    {
      "anonymous": false,
      "inputs": [
        {
          "indexed": false,
          "internalType": "uint256",
          "name": "balance",
          "type": "uint256"
        }
      ],
      "name": "FlashTokenBeforeBalance",
      "type": "event"
    },
    {
      "anonymous": false,
      "inputs": [
        {
          "indexed": false,
          "internalType": "uint256",
          "name": "balance",
          "type": "uint256"
        }
      ],
      "name": "OneInchAfterDAIBalance",
      "type": "event"
    },
    {
      "anonymous": false,
      "inputs": [
        {
          "indexed": false,
          "internalType": "uint256",
          "name": "balance",
          "type": "uint256"
        }
      ],
      "name": "OneInchAfterWETHBalance",
      "type": "event"
    },
    {
      "anonymous": false,
      "inputs": [
        {
          "indexed": false,
          "internalType": "uint256",
          "name": "balance",
          "type": "uint256"
        }
      ],
      "name": "OneInchBeforeDAIBalance",
      "type": "event"
    },
    {
      "anonymous": false,
      "inputs": [
        {
          "indexed": false,
          "internalType": "uint256",
          "name": "balance",
          "type": "uint256"
        }
      ],
      "name": "OneInchBeforeWETHBalance",
      "type": "event"
    },
    {
      "anonymous": false,
      "inputs": [
        {
          "indexed": false,
          "internalType": "uint256",
          "name": "balance",
          "type": "uint256"
        }
      ],
      "name": "StartBalance",
      "type": "event"
    },
    {
      "anonymous": false,
      "inputs": [
        {
          "indexed": false,
          "internalType": "uint256",
          "name": "balance",
          "type": "uint256"
        }
      ],
      "name": "ZRXAfterDAIBalance",
      "type": "event"
    },
    {
      "anonymous": false,
      "inputs": [
        {
          "indexed": false,
          "internalType": "uint256",
          "name": "balance",
          "type": "uint256"
        }
      ],
      "name": "ZRXAfterWETHBalance",
      "type": "event"
    },
    {
      "anonymous": false,
      "inputs": [
        {
          "indexed": false,
          "internalType": "uint256",
          "name": "balance",
          "type": "uint256"
        }
      ],
      "name": "ZRXBeforeDAIBalance",
      "type": "event"
    },
    {
      "anonymous": false,
      "inputs": [
        {
          "indexed": false,
          "internalType": "uint256",
          "name": "balance",
          "type": "uint256"
        }
      ],
      "name": "ZRXBeforeWETHBalance",
      "type": "event"
    },
    {
      "payable": true,
      "stateMutability": "payable",
      "type": "fallback"
    },
    {
      "constant": true,
      "inputs": [],
      "name": "DAI",
      "outputs": [
        {
          "internalType": "address",
          "name": "",
          "type": "address"
        }
      ],
      "payable": false,
      "stateMutability": "view",
      "type": "function"
    },
    {
      "constant": true,
      "inputs": [],
      "name": "SAI",
      "outputs": [
        {
          "internalType": "address",
          "name": "",
          "type": "address"
        }
      ],
      "payable": false,
      "stateMutability": "view",
      "type": "function"
    },
    {
      "constant": true,
      "inputs": [],
      "name": "USDC",
      "outputs": [
        {
          "internalType": "address",
          "name": "",
          "type": "address"
        }
      ],
      "payable": false,
      "stateMutability": "view",
      "type": "function"
    },
    {
      "constant": true,
      "inputs": [],
      "name": "WETH",
      "outputs": [
        {
          "internalType": "address",
          "name": "",
          "type": "address"
        }
      ],
      "payable": false,
      "stateMutability": "view",
      "type": "function"
    },
    {
      "constant": true,
      "inputs": [
        {
          "internalType": "address",
          "name": "",
          "type": "address"
        }
      ],
      "name": "currencies",
      "outputs": [
        {
          "internalType": "uint256",
          "name": "",
          "type": "uint256"
        }
      ],
      "payable": false,
      "stateMutability": "view",
      "type": "function"
    },
    {
      "constant": true,
      "inputs": [],
      "name": "loan",
      "outputs": [
        {
          "internalType": "uint256",
          "name": "",
          "type": "uint256"
        }
      ],
      "payable": false,
      "stateMutability": "view",
      "type": "function"
    },
    {
      "constant": true,
      "inputs": [
        {
          "internalType": "address",
          "name": "token",
          "type": "address"
        }
      ],
      "name": "tokenToMarketId",
      "outputs": [
        {
          "internalType": "uint256",
          "name": "",
          "type": "uint256"
        }
      ],
      "payable": false,
      "stateMutability": "view",
      "type": "function"
    },
    {
      "constant": false,
      "inputs": [
        {
          "internalType": "address",
          "name": "flashToken",
          "type": "address"
        },
        {
          "internalType": "uint256",
          "name": "flashAmount",
          "type": "uint256"
        },
        {
          "internalType": "address",
          "name": "arbToken",
          "type": "address"
        },
        {
          "internalType": "bytes",
          "name": "zrxData",
          "type": "bytes"
        },
        {
          "internalType": "bytes",
          "name": "oneInchData",
          "type": "bytes"
        }
      ],
      "name": "getFlashloan",
      "outputs": [],
      "payable": true,
      "stateMutability": "payable",
      "type": "function"
    },
    {
      "constant": false,
      "inputs": [
        {
          "internalType": "address",
          "name": "",
          "type": "address"
        },
        {
          "components": [
            {
              "internalType": "address",
              "name": "owner",
              "type": "address"
            },
            {
              "internalType": "uint256",
              "name": "number",
              "type": "uint256"
            }
          ],
          "internalType": "struct Structs.Info",
          "name": "",
          "type": "tuple"
        },
        {
          "internalType": "bytes",
          "name": "data",
          "type": "bytes"
        }
      ],
      "name": "callFunction",
      "outputs": [],
      "payable": false,
      "stateMutability": "nonpayable",
      "type": "function"
    },
    {
      "constant": false,
      "inputs": [
        {
          "internalType": "address",
          "name": "_fromToken",
          "type": "address"
        },
        {
          "internalType": "address",
          "name": "_toToken",
          "type": "address"
        },
        {
          "internalType": "uint256",
          "name": "_fromAmount",
          "type": "uint256"
        },
        {
          "internalType": "bytes",
          "name": "_0xData",
          "type": "bytes"
        },
        {
          "internalType": "bytes",
          "name": "_oneInchData",
          "type": "bytes"
        }
      ],
      "name": "arb",
      "outputs": [],
      "payable": true,
      "stateMutability": "payable",
      "type": "function"
    },
    {
      "constant": false,
      "inputs": [
        {
          "internalType": "address",
          "name": "_fromToken",
          "type": "address"
        },
        {
          "internalType": "address",
          "name": "_toToken",
          "type": "address"
        },
        {
          "internalType": "uint256",
          "name": "_fromAmount",
          "type": "uint256"
        },
        {
          "internalType": "bytes",
          "name": "_0xData",
          "type": "bytes"
        },
        {
          "internalType": "bytes",
          "name": "_1inchData",
          "type": "bytes"
        }
      ],
      "name": "trade",
      "outputs": [],
      "payable": true,
      "stateMutability": "payable",
      "type": "function"
    },
    {
      "constant": false,
      "inputs": [
        {
          "internalType": "address",
          "name": "_from",
          "type": "address"
        },
        {
          "internalType": "uint256",
          "name": "_amount",
          "type": "uint256"
        },
        {
          "internalType": "bytes",
          "name": "_calldataHexString",
          "type": "bytes"
        }
      ],
      "name": "zrxSwap",
      "outputs": [],
      "payable": true,
      "stateMutability": "payable",
      "type": "function"
    },
    {
      "constant": false,
      "inputs": [
        {
          "internalType": "address",
          "name": "_from",
          "type": "address"
        },
        {
          "internalType": "address",
          "name": "_to",
          "type": "address"
        },
        {
          "internalType": "uint256",
          "name": "_amount",
          "type": "uint256"
        },
        {
          "internalType": "bytes",
          "name": "_oneInchCallData",
          "type": "bytes"
        }
      ],
      "name": "oneInchSwap",
      "outputs": [],
      "payable": true,
      "stateMutability": "payable",
      "type": "function"
    },
    {
      "constant": false,
      "inputs": [],
      "name": "getWeth",
      "outputs": [],
      "payable": true,
      "stateMutability": "payable",
      "type": "function"
    },
    {
      "constant": false,
      "inputs": [
        {
          "internalType": "uint256",
          "name": "_amount",
          "type": "uint256"
        }
      ],
      "name": "approveWeth",
      "outputs": [],
      "payable": false,
      "stateMutability": "nonpayable",
      "type": "function"
    },
    {
      "constant": false,
      "inputs": [
        {
          "internalType": "address",
          "name": "_tokenAddress",
          "type": "address"
        }
      ],
      "name": "withdrawToken",
      "outputs": [],
      "payable": false,
      "stateMutability": "nonpayable",
      "type": "function"
    },
    {
      "constant": false,
      "inputs": [],
      "name": "withdrawEther",
      "outputs": [],
      "payable": false,
      "stateMutability": "nonpayable",
      "type": "function"
    }
  ],
  "bytecode": "0x6080604052731e0447b19bb6ecfdae1e4ae1694b0c3659614e4e6000806101000a81548173ffffffffffffffffffffffffffffffffffffffff021916908373ffffffffffffffffffffffffffffffffffffffff16021790555073c02aaa39b223fe8d0a0e5c4f27ead9083c756cc2600160006101000a81548173ffffffffffffffffffffffffffffffffffffffff021916908373ffffffffffffffffffffffffffffffffffffffff1602179055507389d24a6b4ccb1b6faa2625fe562bdd9a23260359600260006101000a81548173ffffffffffffffffffffffffffffffffffffffff021916908373ffffffffffffffffffffffffffffffffffffffff16021790555073a0b86991c6218b36c1d19d4a2e9eb0ce3606eb48600360006101000a81548173ffffffffffffffffffffffffffffffffffffffff021916908373ffffffffffffffffffffffffffffffffffffffff160217905550736b175474e89094c44da98b954eedeac495271d0f600460006101000a81548173ffffffffffffffffffffffffffffffffffffffff021916908373ffffffffffffffffffffffffffffffffffffffff16021790555073111111125434b319222cdbf8c261674adb56f3ae600860006101000a81548173ffffffffffffffffffffffffffffffffffffffff021916908373ffffffffffffffffffffffffffffffffffffffff1602179055507361935cbdd02287b511119ddb11aeb42f1593b7ef600960006101000a81548173ffffffffffffffffffffffffffffffffffffffff021916908373ffffffffffffffffffffffffffffffffffffffff1602179055507395e6f48254609a6ee006f7d493c8e5fb97094cef600a60006101000a81548173ffffffffffffffffffffffffffffffffffffffff021916908373ffffffffffffffffffffffffffffffffffffffff16021790555073a26e80e7dea86279c6d778d702cc413e6cffa777600b60006101000a81548173ffffffffffffffffffffffffffffffffffffffff021916908373ffffffffffffffffffffffffffffffffffffffff160217905550600160056000600160009054906101000a900473ffffffffffffffffffffffffffffffffffffffff1673ffffffffffffffffffffffffffffffffffffffff1673ffffffffffffffffffffffffffffffffffffffff16815260200190815260200160002081905550600260056000600260009054906101000a900473ffffffffffffffffffffffffffffffffffffffff1673ffffffffffffffffffffffffffffffffffffffff1673ffffffffffffffffffffffffffffffffffffffff16815260200190815260200160002081905550600360056000600360009054906101000a900473ffffffffffffffffffffffffffffffffffffffff1673ffffffffffffffffffffffffffffffffffffffff1673ffffffffffffffffffffffffffffffffffffffff16815260200190815260200160002081905550600460056000600460009054906101000a900473ffffffffffffffffffffffffffffffffffffffff1673ffffffffffffffffffffffffffffffffffffffff1673ffffffffffffffffffffffffffffffffffffffff16815260200190815260200160002081905550620004ad346200050560201b60201c565b620004be34620005de60201b60201c565b33600760006101000a81548173ffffffffffffffffffffffffffffffffffffffff021916908373ffffffffffffffffffffffffffffffffffffffff16021790555062000862565b6000600160009054906101000a900473ffffffffffffffffffffffffffffffffffffffff1673ffffffffffffffffffffffffffffffffffffffff16826040516200054f906200077c565b60006040518083038185875af1925050503d80600081146200058e576040519150601f19603f3d011682016040523d82523d6000602084013e62000593565b606091505b5050905080620005da576040517f08c379a0000000000000000000000000000000000000000000000000000000008152600401620005d190620007c0565b60405180910390fd5b5050565b600160009054906101000a900473ffffffffffffffffffffffffffffffffffffffff1673ffffffffffffffffffffffffffffffffffffffff1663095ea7b3600b60009054906101000a900473ffffffffffffffffffffffffffffffffffffffff16836040518363ffffffff1660e01b81526004016200065f92919062000793565b602060405180830381600087803b1580156200067a57600080fd5b505af11580156200068f573d6000803e3d6000fd5b505050506040513d601f19601f82011682018060405250620006b59190810190620006d0565b5050565b600081519050620006ca8162000848565b92915050565b600060208284031215620006e357600080fd5b6000620006f384828501620006b9565b91505092915050565b6200070781620007fe565b82525050565b60006200071c601283620007ed565b91507f6661696c656420746f20676574207765746800000000000000000000000000006000830152602082019050919050565b60006200075e600083620007e2565b9150600082019050919050565b62000776816200083e565b82525050565b600062000789826200074f565b9150819050919050565b6000604082019050620007aa6000830185620006fc565b620007b960208301846200076b565b9392505050565b60006020820190508181036000830152620007db816200070d565b9050919050565b600081905092915050565b600082825260208201905092915050565b60006200080b826200081e565b9050919050565b60008115159050919050565b600073ffffffffffffffffffffffffffffffffffffffff82169050919050565b6000819050919050565b620008538162000812565b81146200085f57600080fd5b50565b61346f80620008726000396000f3fe6080604052600436106100fe5760003560e01c806389a3027111610095578063c8c61a7911610064578063c8c61a79146102c2578063d285b7b4146102de578063df1e664614610309578063e0bab4c414610332578063f115b7be1461035d576100fe565b806389a30271146102065780638b41871314610231578063ad5c46481461025a578063b826878814610285576100fe565b80634f591a45116100d15780634f591a451461016d5780636036cba3146101895780637362377b146101c657806389476069146101dd576100fe565b806308cc30c814610100578063107c279f1461011c57806318c2a3fa146101265780634b3fb7f814610142575b005b61011a600480360361011591908101906126fd565b610379565b005b610124610515565b005b610140600480360361013b919081019061256f565b6105b0565b005b34801561014e57600080fd5b50610157610652565b6040516101649190612e84565b60405180910390f35b610187600480360361018291908101906125ea565b610678565b005b34801561019557600080fd5b506101b060048036036101ab919081019061248d565b61071c565b6040516101bd91906130df565b60405180910390f35b3480156101d257600080fd5b506101db610734565b005b3480156101e957600080fd5b5061020460048036036101ff919081019061248d565b610852565b005b34801561021257600080fd5b5061021b610a23565b6040516102289190612e84565b60405180910390f35b34801561023d57600080fd5b5061025860048036036102539190810190612691565b610a49565b005b34801561026657600080fd5b5061026f610c25565b60405161027c9190612e84565b60405180910390f35b34801561029157600080fd5b506102ac60048036036102a7919081019061248d565b610c4b565b6040516102b991906130df565b60405180910390f35b6102dc60048036036102d791908101906127ad565b610ce0565b005b3480156102ea57600080fd5b506102f3610d80565b60405161030091906130df565b60405180910390f35b34801561031557600080fd5b50610330600480360361032b919081019061283d565b610d86565b005b34801561033e57600080fd5b50610347610e22565b6040516103549190612e84565b60405180910390f35b610377600480360361037291908101906125ea565b610e48565b005b600760009054906101000a900473ffffffffffffffffffffffffffffffffffffffff1673ffffffffffffffffffffffffffffffffffffffff163373ffffffffffffffffffffffffffffffffffffffff1614610409576040517f08c379a000000000000000000000000000000000000000000000000000000000815260040161040090612fdf565b60405180910390fd5b60008773ffffffffffffffffffffffffffffffffffffffff166370a08231306040518263ffffffff1660e01b81526004016104449190612e9f565b60206040518083038186803b15801561045c57600080fd5b505afa158015610470573d6000803e3d6000fd5b505050506040513d601f19601f820116820180604052506104949190810190612866565b90507f6ce12bc2c73b407b64835ac87b9ddc5aaaea1d72c43b7fc7cd4a7d889bb39a8e816040516104c591906130df565b60405180910390a1606088888389898989896040516020016104ee989796959493929190612f35565b604051602081830303815290604052905061050a898983610eec565b505050505050505050565b600760009054906101000a900473ffffffffffffffffffffffffffffffffffffffff1673ffffffffffffffffffffffffffffffffffffffff163373ffffffffffffffffffffffffffffffffffffffff16146105a5576040517f08c379a000000000000000000000000000000000000000000000000000000000815260040161059c90612fdf565b60405180910390fd5b6105ae3461135b565b565b600760009054906101000a900473ffffffffffffffffffffffffffffffffffffffff1673ffffffffffffffffffffffffffffffffffffffff163373ffffffffffffffffffffffffffffffffffffffff1614610640576040517f08c379a000000000000000000000000000000000000000000000000000000000815260040161063790612fdf565b60405180910390fd5b61064c8484848461142d565b50505050565b600260009054906101000a900473ffffffffffffffffffffffffffffffffffffffff1681565b600760009054906101000a900473ffffffffffffffffffffffffffffffffffffffff1673ffffffffffffffffffffffffffffffffffffffff163373ffffffffffffffffffffffffffffffffffffffff1614610708576040517f08c379a00000000000000000000000000000000000000000000000000000000081526004016106ff90612fdf565b60405180910390fd5b6107158585858585611973565b5050505050565b60056020528060005260406000206000915090505481565b600760009054906101000a900473ffffffffffffffffffffffffffffffffffffffff1673ffffffffffffffffffffffffffffffffffffffff163373ffffffffffffffffffffffffffffffffffffffff16146107c4576040517f08c379a00000000000000000000000000000000000000000000000000000000081526004016107bb90612fdf565b60405180910390fd5b600030905060008173ffffffffffffffffffffffffffffffffffffffff16319050600760009054906101000a900473ffffffffffffffffffffffffffffffffffffffff1673ffffffffffffffffffffffffffffffffffffffff166108fc829081150290604051600060405180830381858888f1935050505015801561084d573d6000803e3d6000fd5b505050565b600760009054906101000a900473ffffffffffffffffffffffffffffffffffffffff1673ffffffffffffffffffffffffffffffffffffffff163373ffffffffffffffffffffffffffffffffffffffff16146108e2576040517f08c379a00000000000000000000000000000000000000000000000000000000081526004016108d990612fdf565b60405180910390fd5b60008173ffffffffffffffffffffffffffffffffffffffff166370a08231306040518263ffffffff1660e01b815260040161091d9190612e9f565b60206040518083038186803b15801561093557600080fd5b505afa158015610949573d6000803e3d6000fd5b505050506040513d601f19601f8201168201806040525061096d9190810190612866565b90508173ffffffffffffffffffffffffffffffffffffffff1663a9059cbb600760009054906101000a900473ffffffffffffffffffffffffffffffffffffffff16836040518363ffffffff1660e01b81526004016109cc929190612eba565b602060405180830381600087803b1580156109e657600080fd5b505af11580156109fa573d6000803e3d6000fd5b505050506040513d601f19601f82011682018060405250610a1e9190810190612814565b505050565b600360009054906101000a900473ffffffffffffffffffffffffffffffffffffffff1681565b6000809054906101000a900473ffffffffffffffffffffffffffffffffffffffff1673ffffffffffffffffffffffffffffffffffffffff163373ffffffffffffffffffffffffffffffffffffffff1614610ad8576040517f08c379a0000000000000000000000000000000000000000000000000000000008152600401610acf9061303f565b60405180910390fd5b6000806000806060808787610af091908101906124b6565b95509550955095509550955060008673ffffffffffffffffffffffffffffffffffffffff166370a08231306040518263ffffffff1660e01b8152600401610b379190612e9f565b60206040518083038186803b158015610b4f57600080fd5b505afa158015610b63573d6000803e3d6000fd5b505050506040513d601f19601f82011682018060405250610b879190810190612866565b90507f18632a467043bbd55a7a8f567277238b56a179719da2d13f6ff04a1599d7aa6281604051610bb891906130df565b60405180910390a18585820314610c04576040517f08c379a0000000000000000000000000000000000000000000000000000000008152600401610bfb9061309f565b60405180910390fd5b80600681905550610c188785888686611973565b5050505050505050505050565b600160009054906101000a900473ffffffffffffffffffffffffffffffffffffffff1681565b600080600560008473ffffffffffffffffffffffffffffffffffffffff1673ffffffffffffffffffffffffffffffffffffffff1681526020019081526020016000205490506000811415610cd4576040517f08c379a0000000000000000000000000000000000000000000000000000000008152600401610ccb906130bf565b60405180910390fd5b60018103915050919050565b600760009054906101000a900473ffffffffffffffffffffffffffffffffffffffff1673ffffffffffffffffffffffffffffffffffffffff163373ffffffffffffffffffffffffffffffffffffffff1614610d70576040517f08c379a0000000000000000000000000000000000000000000000000000000008152600401610d6790612fdf565b60405180910390fd5b610d7b838383611b53565b505050565b60065481565b600760009054906101000a900473ffffffffffffffffffffffffffffffffffffffff1673ffffffffffffffffffffffffffffffffffffffff163373ffffffffffffffffffffffffffffffffffffffff1614610e16576040517f08c379a0000000000000000000000000000000000000000000000000000000008152600401610e0d90612fdf565b60405180910390fd5b610e1f81611d90565b50565b600460009054906101000a900473ffffffffffffffffffffffffffffffffffffffff1681565b600760009054906101000a900473ffffffffffffffffffffffffffffffffffffffff1673ffffffffffffffffffffffffffffffffffffffff163373ffffffffffffffffffffffffffffffffffffffff1614610ed8576040517f08c379a0000000000000000000000000000000000000000000000000000000008152600401610ecf90612fdf565b60405180910390fd5b610ee58585858585611e65565b5050505050565b8273ffffffffffffffffffffffffffffffffffffffff1663095ea7b36000809054906101000a900473ffffffffffffffffffffffffffffffffffffffff16600185016040518363ffffffff1660e01b8152600401610f4b929190612f0c565b602060405180830381600087803b158015610f6557600080fd5b505af1158015610f79573d6000803e3d6000fd5b505050506040513d601f19601f82011682018060405250610f9d9190810190612814565b5060606001604051908082528060200260200182016040528015610fdb57816020015b610fc8612193565b815260200190600190039081610fc05790505b5090506060600360405190808252806020026020018201604052801561101b57816020015b6110086121c3565b8152602001906001900390816110005790505b50905060405180604001604052803073ffffffffffffffffffffffffffffffffffffffff16815260200160008152508260008151811061105757fe5b602002602001018190525061106a61222f565b604051806080016040528060001515815260200160008081111561108a57fe5b815260200160008081111561109b57fe5b81526020018681525090506110ae61226d565b6001816000019060088111156110c057fe5b908160088111156110cd57fe5b8152505060008160200181815250508181604001819052506110ee87610c4b565b816060018181525050308160a0019073ffffffffffffffffffffffffffffffffffffffff16908173ffffffffffffffffffffffffffffffffffffffff1681525050808360008151811061113d57fe5b602002602001018190525061115061226d565b60088160000190600881111561116257fe5b9081600881111561116f57fe5b815250506000816020018181525050308160a0019073ffffffffffffffffffffffffffffffffffffffff16908173ffffffffffffffffffffffffffffffffffffffff1681525050858160e0018190525080846001815181106111cd57fe5b60200260200101819052506111e061226d565b6111e861222f565b604051806080016040528060011515815260200160008081111561120857fe5b815260200160008081111561121957fe5b815260200160018b01815250905060008260000190600881111561123957fe5b9081600881111561124657fe5b8152505060008260200181815250508082604001819052506112678a610c4b565b826060018181525050308260a0019073ffffffffffffffffffffffffffffffffffffffff16908173ffffffffffffffffffffffffffffffffffffffff168152505081866002815181106112b657fe5b60200260200101819052506000809054906101000a900473ffffffffffffffffffffffffffffffffffffffff1673ffffffffffffffffffffffffffffffffffffffff1663a67a6a4588886040518363ffffffff1660e01b815260040161131d929190612fa8565b600060405180830381600087803b15801561133757600080fd5b505af115801561134b573d6000803e3d6000fd5b5050505050505050505050505050565b6000600160009054906101000a900473ffffffffffffffffffffffffffffffffffffffff1673ffffffffffffffffffffffffffffffffffffffff16826040516113a390612e6f565b60006040518083038185875af1925050503d80600081146113e0576040519150601f19603f3d011682016040523d82523d6000602084013e6113e5565b606091505b5050905080611429576040517f08c379a00000000000000000000000000000000000000000000000000000000081526004016114209061301f565b60405180910390fd5b5050565b600084905060008473ffffffffffffffffffffffffffffffffffffffff166370a08231306040518263ffffffff1660e01b815260040161146d9190612e9f565b60206040518083038186803b15801561148557600080fd5b505afa158015611499573d6000803e3d6000fd5b505050506040513d601f19601f820116820180604052506114bd9190810190612866565b90507f4241d4279cd8a920991126b6b8d1fd5f317d6339de2844e5aa619a96c2ebf630816040516114ee91906130df565b60405180910390a17f02eb4ec33a4184e9bb5a20a1e146cc588b2d9f39b260db719652a1182b8911a18673ffffffffffffffffffffffffffffffffffffffff166370a08231306040518263ffffffff1660e01b81526004016115509190612e9f565b60206040518083038186803b15801561156857600080fd5b505afa15801561157c573d6000803e3d6000fd5b505050506040513d601f19601f820116820180604052506115a09190810190612866565b6040516115ad91906130df565b60405180910390a18173ffffffffffffffffffffffffffffffffffffffff1663095ea7b3600860009054906101000a900473ffffffffffffffffffffffffffffffffffffffff16866040518363ffffffff1660e01b8152600401611612929190612f0c565b602060405180830381600087803b15801561162c57600080fd5b505af1158015611640573d6000803e3d6000fd5b505050506040513d601f19601f820116820180604052506116649190810190612814565b506000600860009054906101000a900473ffffffffffffffffffffffffffffffffffffffff1673ffffffffffffffffffffffffffffffffffffffff1634856040516116af9190612e58565b60006040518083038185875af1925050503d80600081146116ec576040519150601f19603f3d011682016040523d82523d6000602084013e6116f1565b606091505b5050905080611735576040517f08c379a000000000000000000000000000000000000000000000000000000000815260040161172c9061305f565b60405180910390fd5b60008673ffffffffffffffffffffffffffffffffffffffff166370a08231306040518263ffffffff1660e01b81526004016117709190612e9f565b60206040518083038186803b15801561178857600080fd5b505afa15801561179c573d6000803e3d6000fd5b505050506040513d601f19601f820116820180604052506117c09190810190612866565b90507fc4b2886fefd97d9131fb24eaf2ce0e02a4598ecbb037740914f68a6b3c2308db816040516117f191906130df565b60405180910390a17fe492e0402bce03fa4a331ccce6323f49b1dd91840ee86cbcc7f74543098351948873ffffffffffffffffffffffffffffffffffffffff166370a08231306040518263ffffffff1660e01b81526004016118539190612e9f565b60206040518083038186803b15801561186b57600080fd5b505afa15801561187f573d6000803e3d6000fd5b505050506040513d601f19601f820116820180604052506118a39190810190612866565b6040516118b091906130df565b60405180910390a18373ffffffffffffffffffffffffffffffffffffffff1663095ea7b3600860009054906101000a900473ffffffffffffffffffffffffffffffffffffffff1660006040518363ffffffff1660e01b8152600401611916929190612ee3565b602060405180830381600087803b15801561193057600080fd5b505af1158015611944573d6000803e3d6000fd5b505050506040513d601f19601f820116820180604052506119689190810190612814565b505050505050505050565b60008573ffffffffffffffffffffffffffffffffffffffff166370a08231306040518263ffffffff1660e01b81526004016119ae9190612e9f565b60206040518083038186803b1580156119c657600080fd5b505afa1580156119da573d6000803e3d6000fd5b505050506040513d601f19601f820116820180604052506119fe9190810190612866565b90507ff4368a0b072748289cf6359dfabe56e43f800b15b140869dd2e3fbbb6f82235d81604051611a2f91906130df565b60405180910390a1611a448686868686611e65565b60008673ffffffffffffffffffffffffffffffffffffffff166370a08231306040518263ffffffff1660e01b8152600401611a7f9190612e9f565b60206040518083038186803b158015611a9757600080fd5b505afa158015611aab573d6000803e3d6000fd5b505050506040513d601f19601f82011682018060405250611acf9190810190612866565b90507f55f952f52b983578f7ca4ebbe9042c9bce728e59f683246540084cc95b781b0d81604051611b0091906130df565b60405180910390a1818111611b4a576040517f08c379a0000000000000000000000000000000000000000000000000000000008152600401611b4190612fff565b60405180910390fd5b50505050505050565b60008390508073ffffffffffffffffffffffffffffffffffffffff1663095ea7b3600a60009054906101000a900473ffffffffffffffffffffffffffffffffffffffff16856040518363ffffffff1660e01b8152600401611bb5929190612f0c565b602060405180830381600087803b158015611bcf57600080fd5b505af1158015611be3573d6000803e3d6000fd5b505050506040513d601f19601f82011682018060405250611c079190810190612814565b506000600960009054906101000a900473ffffffffffffffffffffffffffffffffffffffff1673ffffffffffffffffffffffffffffffffffffffff163484604051611c529190612e58565b60006040518083038185875af1925050503d8060008114611c8f576040519150601f19603f3d011682016040523d82523d6000602084013e611c94565b606091505b5050905080611cd8576040517f08c379a0000000000000000000000000000000000000000000000000000000008152600401611ccf9061307f565b60405180910390fd5b8173ffffffffffffffffffffffffffffffffffffffff1663095ea7b3600a60009054906101000a900473ffffffffffffffffffffffffffffffffffffffff1660006040518363ffffffff1660e01b8152600401611d36929190612ee3565b602060405180830381600087803b158015611d5057600080fd5b505af1158015611d64573d6000803e3d6000fd5b505050506040513d601f19601f82011682018060405250611d889190810190612814565b505050505050565b600160009054906101000a900473ffffffffffffffffffffffffffffffffffffffff1673ffffffffffffffffffffffffffffffffffffffff1663095ea7b3600b60009054906101000a900473ffffffffffffffffffffffffffffffffffffffff16836040518363ffffffff1660e01b8152600401611e0f929190612f0c565b602060405180830381600087803b158015611e2957600080fd5b505af1158015611e3d573d6000803e3d6000fd5b505050506040513d601f19601f82011682018060405250611e619190810190612814565b5050565b60008473ffffffffffffffffffffffffffffffffffffffff166370a08231306040518263ffffffff1660e01b8152600401611ea09190612e9f565b60206040518083038186803b158015611eb857600080fd5b505afa158015611ecc573d6000803e3d6000fd5b505050506040513d601f19601f82011682018060405250611ef09190810190612866565b90507fca5c0cb4f009dc0352116bf2e133fba9eb58ccc5a9312df7eda6c522aa470c2e81604051611f2191906130df565b60405180910390a17fbff1a539e8ac3035efeefba9abcf65404d73912bec570f96a3c09d49cf18d1ec8673ffffffffffffffffffffffffffffffffffffffff166370a08231306040518263ffffffff1660e01b8152600401611f839190612e9f565b60206040518083038186803b158015611f9b57600080fd5b505afa158015611faf573d6000803e3d6000fd5b505050506040513d601f19601f82011682018060405250611fd39190810190612866565b604051611fe091906130df565b60405180910390a1611ff3868585611b53565b60008573ffffffffffffffffffffffffffffffffffffffff166370a08231306040518263ffffffff1660e01b815260040161202e9190612e9f565b60206040518083038186803b15801561204657600080fd5b505afa15801561205a573d6000803e3d6000fd5b505050506040513d601f19601f8201168201806040525061207e9190810190612866565b90507f1abbb45a113be6ccc2dc6036227ae0873f9b62716a2cb549808dd488ec78e681816040516120af91906130df565b60405180910390a17fbd2d83c4509459420acc026c8292e25e2f9a3c920bbb3946266cd4758eff0ef78773ffffffffffffffffffffffffffffffffffffffff166370a08231306040518263ffffffff1660e01b81526004016121119190612e9f565b60206040518083038186803b15801561212957600080fd5b505afa15801561213d573d6000803e3d6000fd5b505050506040513d601f19601f820116820180604052506121619190810190612866565b60405161216e91906130df565b60405180910390a1600082820390506121898789838761142d565b5050505050505050565b6040518060400160405280600073ffffffffffffffffffffffffffffffffffffffff168152602001600081525090565b604051806101000160405280600060088111156121dc57fe5b8152602001600081526020016121f06122d9565b81526020016000815260200160008152602001600073ffffffffffffffffffffffffffffffffffffffff16815260200160008152602001606081525090565b604051806080016040528060001515815260200160008081111561224f57fe5b815260200160008081111561226057fe5b8152602001600081525090565b6040518061010001604052806000600881111561228657fe5b81526020016000815260200161229a6122d9565b81526020016000815260200160008152602001600073ffffffffffffffffffffffffffffffffffffffff16815260200160008152602001606081525090565b60405180608001604052806000151581526020016000808111156122f957fe5b815260200160008081111561230a57fe5b8152602001600081525090565b600081359050612326816133d0565b92915050565b60008135905061233b816133e7565b92915050565b600081519050612350816133fe565b92915050565b60008083601f84011261236857600080fd5b8235905067ffffffffffffffff81111561238157600080fd5b60208301915083600182028301111561239957600080fd5b9250929050565b600082601f8301126123b157600080fd5b81356123c46123bf82613127565b6130fa565b915080825260208301602083018583830111156123e057600080fd5b6123eb838284613356565b50505092915050565b600082601f83011261240557600080fd5b813561241861241382613153565b6130fa565b9150808252602083016020830185838301111561243457600080fd5b61243f838284613356565b50505092915050565b60006040828403121561245a57600080fd5b81905092915050565b60008135905061247281613415565b92915050565b60008151905061248781613415565b92915050565b60006020828403121561249f57600080fd5b60006124ad84828501612317565b91505092915050565b60008060008060008060c087890312156124cf57600080fd5b60006124dd89828a0161232c565b96505060206124ee89828a01612463565b95505060406124ff89828a01612463565b945050606061251089828a0161232c565b935050608087013567ffffffffffffffff81111561252d57600080fd5b61253989828a016123a0565b92505060a087013567ffffffffffffffff81111561255657600080fd5b61256289828a016123a0565b9150509295509295509295565b6000806000806080858703121561258557600080fd5b600061259387828801612317565b94505060206125a487828801612317565b93505060406125b587828801612463565b925050606085013567ffffffffffffffff8111156125d257600080fd5b6125de878288016123f4565b91505092959194509250565b600080600080600060a0868803121561260257600080fd5b600061261088828901612317565b955050602061262188828901612317565b945050604061263288828901612463565b935050606086013567ffffffffffffffff81111561264f57600080fd5b61265b888289016123f4565b925050608086013567ffffffffffffffff81111561267857600080fd5b612684888289016123f4565b9150509295509295909350565b600080600080608085870312156126a757600080fd5b60006126b587828801612317565b94505060206126c687828801612448565b935050606085013567ffffffffffffffff8111156126e357600080fd5b6126ef87828801612356565b925092505092959194509250565b600080600080600080600060a0888a03121561271857600080fd5b60006127268a828b01612317565b97505060206127378a828b01612463565b96505060406127488a828b01612317565b955050606088013567ffffffffffffffff81111561276557600080fd5b6127718a828b01612356565b9450945050608088013567ffffffffffffffff81111561279057600080fd5b61279c8a828b01612356565b925092505092959891949750929550565b6000806000606084860312156127c257600080fd5b60006127d086828701612317565b93505060206127e186828701612463565b925050604084013567ffffffffffffffff8111156127fe57600080fd5b61280a868287016123f4565b9150509250925092565b60006020828403121561282657600080fd5b600061283484828501612341565b91505092915050565b60006020828403121561284f57600080fd5b600061285d84828501612463565b91505092915050565b60006020828403121561287857600080fd5b600061288684828501612478565b91505092915050565b600061289b8383612d03565b905092915050565b60006128af8383612e0b565b60408301905092915050565b6128c4816132d8565b82525050565b6128d381613245565b82525050565b6128e281613245565b82525050565b60006128f38261319f565b6128fd81856131e5565b93508360208202850161290f8561317f565b8060005b8581101561294b578484038952815161292c858261288f565b9450612937836131cb565b925060208a01995050600181019050612913565b50829750879550505050505092915050565b6000612968826131aa565b61297281856131f6565b935061297d8361318f565b8060005b838110156129ae57815161299588826128a3565b97506129a0836131d8565b925050600181019050612981565b5085935050505092915050565b6129c481613269565b82525050565b60006129d68385613218565b93506129e3838584613356565b6129ec83613398565b840190509392505050565b6000612a02826131c0565b612a0c8185613229565b9350612a1c818560208601613365565b80840191505092915050565b6000612a33826131b5565b612a3d8185613207565b9350612a4d818560208601613365565b612a5681613398565b840191505092915050565b612a6a816132ea565b82525050565b612a79816132fc565b82525050565b612a888161330e565b82525050565b612a9781613320565b82525050565b6000612aaa601883613234565b91507f63616c6c6572206973206e6f7420746865206f776e65722100000000000000006000830152602082019050919050565b6000612aea602683613234565b91507f456e642062616c616e6365206d7573742065786365656420737461727420626160008301527f6c616e63652e00000000000000000000000000000000000000000000000000006020830152604082019050919050565b6000612b50601283613234565b91507f6661696c656420746f20676574207765746800000000000000000000000000006000830152602082019050919050565b6000612b90602c83613234565b91507f466c6173684c6f616e3a20636f756c642062652063616c6c656420627920447960008301527f447820706f6f6c206f6e6c7900000000000000000000000000000000000000006020830152604082019050919050565b6000612bf6601683613234565b91507f31494e43485f535741505f43414c4c5f4641494c4544000000000000000000006000830152602082019050919050565b6000612c36601083613234565b91507f535741505f43414c4c5f4641494c4544000000000000000000000000000000006000830152602082019050919050565b6000612c76601d83613234565b91507f636f6e747261637420646964206e6f742067657420746865206c6f616e0000006000830152602082019050919050565b6000612cb6600083613229565b9150600082019050919050565b6000612cd0601c83613234565b91507f466c6173684c6f616e3a20556e737570706f7274656420746f6b656e000000006000830152602082019050919050565b600061016083016000830151612d1c6000860182612a61565b506020830151612d2f6020860182612e3a565b506040830151612d426040860182612db6565b506060830151612d5560c0860182612e3a565b506080830151612d6860e0860182612e3a565b5060a0830151612d7c6101008601826128ca565b5060c0830151612d90610120860182612e3a565b5060e0830151848203610140860152612da98282612a28565b9150508091505092915050565b608082016000820151612dcc60008501826129bb565b506020820151612ddf6020850182612a70565b506040820151612df26040850182612a7f565b506060820151612e056060850182612e3a565b50505050565b604082016000820151612e2160008501826128ca565b506020820151612e346020850182612e3a565b50505050565b612e43816132ce565b82525050565b612e52816132ce565b82525050565b6000612e6482846129f7565b915081905092915050565b6000612e7a82612ca9565b9150819050919050565b6000602082019050612e9960008301846128d9565b92915050565b6000602082019050612eb460008301846128bb565b92915050565b6000604082019050612ecf60008301856128bb565b612edc6020830184612e49565b9392505050565b6000604082019050612ef860008301856128d9565b612f056020830184612a8e565b9392505050565b6000604082019050612f2160008301856128d9565b612f2e6020830184612e49565b9392505050565b600060c082019050612f4a600083018b6128d9565b612f57602083018a612e49565b612f646040830189612e49565b612f7160608301886128d9565b8181036080830152612f848186886129ca565b905081810360a0830152612f998184866129ca565b90509998505050505050505050565b60006040820190508181036000830152612fc2818561295d565b90508181036020830152612fd681846128e8565b90509392505050565b60006020820190508181036000830152612ff881612a9d565b9050919050565b6000602082019050818103600083015261301881612add565b9050919050565b6000602082019050818103600083015261303881612b43565b9050919050565b6000602082019050818103600083015261305881612b83565b9050919050565b6000602082019050818103600083015261307881612be9565b9050919050565b6000602082019050818103600083015261309881612c29565b9050919050565b600060208201905081810360008301526130b881612c69565b9050919050565b600060208201905081810360008301526130d881612cc3565b9050919050565b60006020820190506130f46000830184612e49565b92915050565b6000604051905081810181811067ffffffffffffffff8211171561311d57600080fd5b8060405250919050565b600067ffffffffffffffff82111561313e57600080fd5b601f19601f8301169050602081019050919050565b600067ffffffffffffffff82111561316a57600080fd5b601f19601f8301169050602081019050919050565b6000819050602082019050919050565b6000819050602082019050919050565b600081519050919050565b600081519050919050565b600081519050919050565b600081519050919050565b6000602082019050919050565b6000602082019050919050565b600082825260208201905092915050565b600082825260208201905092915050565b600082825260208201905092915050565b600082825260208201905092915050565b600081905092915050565b600082825260208201905092915050565b6000613250826132ae565b9050919050565b6000613262826132ae565b9050919050565b60008115159050919050565b6000819050613283826133a9565b919050565b6000819050613296826133b6565b919050565b60008190506132a9826133c3565b919050565b600073ffffffffffffffffffffffffffffffffffffffff82169050919050565b6000819050919050565b60006132e382613332565b9050919050565b60006132f582613275565b9050919050565b600061330782613288565b9050919050565b60006133198261329b565b9050919050565b600061332b826132ce565b9050919050565b600061333d82613344565b9050919050565b600061334f826132ae565b9050919050565b82818337600083830152505050565b60005b83811015613383578082015181840152602081019050613368565b83811115613392576000848401525b50505050565b6000601f19601f8301169050919050565b600981106133b357fe5b50565b600181106133c057fe5b50565b600181106133cd57fe5b50565b6133d981613245565b81146133e457600080fd5b50565b6133f081613257565b81146133fb57600080fd5b50565b61340781613269565b811461341257600080fd5b50565b61341e816132ce565b811461342957600080fd5b5056fea365627a7a7231582004bf0468ddc4b6dcd1a65fc56829cacfdae1361cf3bb3c749e35b1fd898482626c6578706572696d656e74616cf564736f6c63430005100040",
  "source": "pragma solidity ^0.5.0;\npragma experimental ABIEncoderV2;\n\n\ninterface Structs {\n    struct SwapDescription {\n        IERC20 srcToken;\n        IERC20 dstToken;\n        address srcReceiver;\n        address dstReceiver;\n        uint256 amount;\n        uint256 minReturnAmount;\n        uint256 guaranteedAmount;\n        uint256 flags;\n        address referrer;\n        bytes permit;\n    }\n\n    struct Val {\n        uint256 value;\n    }\n\n    enum ActionType {\n        Deposit, // supply tokens\n        Withdraw, // borrow tokens\n        Transfer, // transfer balance between accounts\n        Buy, // buy an amount of some token (externally)\n        Sell, // sell an amount of some token (externally)\n        Trade, // trade tokens against another account\n        Liquidate, // liquidate an undercollateralized or expiring account\n        Vaporize, // use excess tokens to zero-out a completely negative account\n        Call       // send arbitrary data to an address\n    }\n\n    enum AssetDenomination {\n        Wei // the amount is denominated in wei\n    }\n\n    enum AssetReference {\n        Delta // the amount is given as a delta from the current value\n    }\n\n    struct AssetAmount {\n        bool sign; // true if positive\n        AssetDenomination denomination;\n        AssetReference ref;\n        uint256 value;\n    }\n\n    struct ActionArgs {\n        ActionType actionType;\n        uint256 accountId;\n        AssetAmount amount;\n        uint256 primaryMarketId;\n        uint256 secondaryMarketId;\n        address otherAddress;\n        uint256 otherAccountId;\n        bytes data;\n    }\n\n    struct Info {\n        address owner;  // The address that owns the account\n        uint256 number; // A nonce that allows a single address to control many accounts\n    }\n\n    struct Wei {\n        bool sign; // true if positive\n        uint256 value;\n    }\n}\n\ncontract DyDxPool is Structs {\n    function getAccountWei(Info memory account, uint256 marketId) public view returns (Wei memory);\n    function operate(Info[] memory, ActionArgs[] memory) public;\n}\n\n/**\n * @dev Interface of the ERC20 standard as defined in the EIP. Does not include\n * the optional functions; to access them see `ERC20Detailed`.\n */\ninterface IERC20 {\n    function totalSupply() external view returns (uint256);\n\n    function balanceOf(address account) external view returns (uint256);\n\n    function transfer(address recipient, uint256 amount) external returns (bool);\n\n    function allowance(address owner, address spender) external view returns (uint256);\n\n    function approve(address spender, uint256 amount) external returns (bool);\n\n    function transferFrom(address sender, address recipient, uint256 amount) external returns (bool);\n\n    event Transfer(address indexed from, address indexed to, uint256 value);\n    event Approval(address indexed owner, address indexed spender, uint256 value);\n}\n\ncontract DyDxFlashLoan is Structs {\n    DyDxPool pool = DyDxPool(0x1E0447b19BB6EcFdAe1e4AE1694b0C3659614e4e);\n\n    address public WETH = 0xC02aaA39b223FE8D0A0e5C4F27eAD9083C756Cc2;\n    address public SAI = 0x89d24A6b4CcB1B6fAA2625fE562bDD9a23260359;\n    address public USDC = 0xA0b86991c6218b36c1d19D4a2e9Eb0cE3606eB48;\n    address public DAI = 0x6B175474E89094C44Da98b954EedeAC495271d0F;\n    mapping(address => uint256) public currencies;\n\n    constructor() public {\n        currencies[WETH] = 1;\n        currencies[SAI] = 2;\n        currencies[USDC] = 3;\n        currencies[DAI] = 4;\n    }\n\n    modifier onlyPool() {\n        require(\n            msg.sender == address(pool),\n            \"FlashLoan: could be called by DyDx pool only\"\n        );\n        _;\n    }\n\n    function tokenToMarketId(address token) public view returns (uint256) {\n        uint256 marketId = currencies[token];\n        require(marketId != 0, \"FlashLoan: Unsupported token\");\n        return marketId - 1;\n    }\n\n    // the DyDx will call `callFunction(address sender, Info memory accountInfo, bytes memory data) public` after during `operate` call\n    function flashloan(address token, uint256 amount, bytes memory data)\n    internal\n    {\n        IERC20(token).approve(address(pool), amount + 1);\n        Info[] memory infos = new Info[](1);\n        ActionArgs[] memory args = new ActionArgs[](3);\n\n        infos[0] = Info(address(this), 0);\n\n        AssetAmount memory wamt = AssetAmount(\n            false,\n            AssetDenomination.Wei,\n            AssetReference.Delta,\n            amount\n        );\n        ActionArgs memory withdraw;\n        withdraw.actionType = ActionType.Withdraw;\n        withdraw.accountId = 0;\n        withdraw.amount = wamt;\n        withdraw.primaryMarketId = tokenToMarketId(token);\n        withdraw.otherAddress = address(this);\n\n        args[0] = withdraw;\n\n        ActionArgs memory call;\n        call.actionType = ActionType.Call;\n        call.accountId = 0;\n        call.otherAddress = address(this);\n        call.data = data;\n\n        args[1] = call;\n\n        ActionArgs memory deposit;\n        AssetAmount memory damt = AssetAmount(\n            true,\n            AssetDenomination.Wei,\n            AssetReference.Delta,\n            amount + 1\n        );\n        deposit.actionType = ActionType.Deposit;\n        deposit.accountId = 0;\n        deposit.amount = damt;\n        deposit.primaryMarketId = tokenToMarketId(token);\n        deposit.otherAddress = address(this);\n\n        args[2] = deposit;\n\n        pool.operate(infos, args);\n    }\n}\n\n// SPDX-License-Identifier: MIT\n\ncontract TradingBot is DyDxFlashLoan {\n    event StartBalance(uint256 balance);\n    event EndBalance(uint256 balance);\n    event ZRXBeforeDAIBalance(uint256 balance);\n    event ZRXAfterDAIBalance(uint256 balance);\n    event ZRXBeforeWETHBalance(uint256 balance);\n    event ZRXAfterWETHBalance(uint256 balance);\n    event OneInchBeforeDAIBalance(uint256 balance);\n    event OneInchAfterDAIBalance(uint256 balance);\n    event OneInchBeforeWETHBalance(uint256 balance);\n    event OneInchAfterWETHBalance(uint256 balance);\n    event FlashTokenBeforeBalance(uint256 balance);\n    event FlashTokenAfterBalance(uint256 balance);\n\n    uint256 public loan;\n//    uint256 reserve = 2 ether;\n\n\n    // Addresses\n    address payable OWNER;\n\n    // OneInch Config\n    address ONE_INCH_ADDRESS = 0x111111125434b319222CdBf8C261674aDB56F3ae;\n\n    // ZRX Config\n    address ZRX_EXCHANGE_ADDRESS = 0x61935CbDd02287B511119DDb11Aeb42F1593b7Ef;\n    address ZRX_ERC20_PROXY_ADDRESS = 0x95E6F48254609A6ee006F7D493c8e5fB97094ceF;\n    address ZRX_STAKING_PROXY = 0xa26e80e7Dea86279c6d778D702Cc413E6CFfA777; // Fee collector\n\n    // Modifiers\n    modifier onlyOwner() {\n        require(msg.sender == OWNER, \"caller is not the owner!\");\n        _;\n    }\n\n    // Allow the contract to receive Ether\n    function () external payable {}\n\n    constructor() public payable {\n        _getWeth(msg.value);\n        _approveWeth(msg.value);\n        OWNER = msg.sender;\n    }\n\n    function getFlashloan(address flashToken, uint256 flashAmount, address arbToken, bytes calldata zrxData, bytes calldata oneInchData) external payable onlyOwner {\n        uint256 balanceBefore = IERC20(flashToken).balanceOf(address(this));\n        emit FlashTokenBeforeBalance(balanceBefore);\n\n        bytes memory data = abi.encode(flashToken, flashAmount, balanceBefore, arbToken, zrxData, oneInchData);\n        flashloan(flashToken, flashAmount, data);\n        // execution goes to `callFunction`\n\n        // and this point we have succefully paid the dept\n    }\n\n    function callFunction(\n        address, /* sender */\n        Info calldata, /* accountInfo */\n        bytes calldata data\n    ) external onlyPool {\n        (address flashToken, uint256 flashAmount, uint256 balanceBefore, address arbToken, bytes memory zrxData, bytes memory oneInchData) = abi\n        .decode(data, (address, uint256, uint256, address, bytes, bytes));\n        uint256 balanceAfter = IERC20(flashToken).balanceOf(address(this));\n        emit FlashTokenAfterBalance(balanceAfter);\n        require(\n            balanceAfter - balanceBefore == flashAmount,\n            \"contract did not get the loan\"\n        );\n        loan = balanceAfter;\n\n        // do whatever you want with the money\n        // the dept will be automatically withdrawn from this contract at the end of execution\n        _arb(flashToken, arbToken, flashAmount, zrxData, oneInchData);\n    }\n\n    function arb(address _fromToken, address _toToken, uint256 _fromAmount, bytes memory _0xData, bytes memory _oneInchData) onlyOwner payable public {\n        _arb(_fromToken, _toToken, _fromAmount, _0xData, _oneInchData);\n    }\n\n    function _arb(address _fromToken, address _toToken, uint256 _fromAmount, bytes memory _0xData, bytes memory _oneInchData) internal {\n        // Track original balance\n        uint256 _startBalance = IERC20(_fromToken).balanceOf(address(this));\n        emit StartBalance(_startBalance);\n\n        // Perform the arb trade\n        _trade(_fromToken, _toToken, _fromAmount, _0xData, _oneInchData);\n\n        // Track result balance\n        uint256 _endBalance = IERC20(_fromToken).balanceOf(address(this));\n        emit EndBalance(_endBalance);\n\n        // Require that arbitrage is profitable\n        require(_endBalance > _startBalance, \"End balance must exceed start balance.\");\n    }\n\n    function trade(address _fromToken, address _toToken, uint256 _fromAmount, bytes memory _0xData, bytes memory _1inchData) onlyOwner payable public {\n        _trade(_fromToken, _toToken, _fromAmount, _0xData, _1inchData);\n    }\n\n    function _trade(address _fromToken, address _toToken, uint256 _fromAmount, bytes memory _0xData, bytes memory _1inchData) internal {\n        // Track the balance of the token RECEIVED from the trade\n        uint256 _beforeBalance = IERC20(_toToken).balanceOf(address(this));\n\n        emit ZRXBeforeDAIBalance(_beforeBalance);\n        emit ZRXBeforeWETHBalance(IERC20(_fromToken).balanceOf(address(this)));\n        // Swap on 0x: give _fromToken, receive _toToken\n        _zrxSwap(_fromToken, _fromAmount, _0xData);\n\n        // Calculate the how much of the token we received\n        uint256 _afterBalance = IERC20(_toToken).balanceOf(address(this));\n        emit ZRXAfterDAIBalance(_afterBalance);\n        emit ZRXAfterWETHBalance(IERC20(_fromToken).balanceOf(address(this)));\n        // Read _toToken balance after swap\n        uint256 _toAmount = _afterBalance - _beforeBalance;\n\n        // Swap on 1Inch: give _toToken, receive _fromToken\n         _oneInchSwap(_toToken, _fromToken, _toAmount, _1inchData);\n    }\n\n    function zrxSwap(address _from, uint256 _amount, bytes memory _calldataHexString) onlyOwner public payable {\n        _zrxSwap(_from, _amount, _calldataHexString);\n    }\n\n    function _zrxSwap(address _from, uint256 _amount, bytes memory _calldataHexString) internal {\n        // Approve tokens\n        IERC20 _fromIERC20 = IERC20(_from);\n        _fromIERC20.approve(ZRX_ERC20_PROXY_ADDRESS, _amount);\n\n        // Swap tokens\n        (bool success,) = address(ZRX_EXCHANGE_ADDRESS).call.value(msg.value)(_calldataHexString);\n\n        require(success, 'SWAP_CALL_FAILED');\n        // Reset approval\n        _fromIERC20.approve(ZRX_ERC20_PROXY_ADDRESS, 0);\n    }\n\n    function oneInchSwap(address _from, address _to, uint256 _amount, bytes memory _oneInchCallData) onlyOwner public payable {\n        _oneInchSwap(_from, _to, _amount, _oneInchCallData);\n    }\n\n    //_oneInchCalldata is a tx data from /swap endpoint of 1inch api\n    function _oneInchSwap(address _from, address _to, uint256 _amount, bytes memory _oneInchCallData) internal {\n        // Setup contracts\n        IERC20 _fromIERC20 = IERC20(_from);\n        uint256 _beforeBalance = IERC20(_to).balanceOf(address(this));\n\n        emit OneInchBeforeWETHBalance(_beforeBalance);\n        emit OneInchBeforeDAIBalance(IERC20(_from).balanceOf(address(this)));\n        // Approve tokens\n        _fromIERC20.approve(ONE_INCH_ADDRESS, _amount);\n\n        // Swap tokens: give _from, get _to\n        (bool success,) = ONE_INCH_ADDRESS.call.value(msg.value)(_oneInchCallData);\n        require(success, '1INCH_SWAP_CALL_FAILED');\n\n        uint256 _afterBalance = IERC20(_to).balanceOf(address(this));\n\n        emit OneInchAfterWETHBalance(_afterBalance);\n        emit OneInchAfterDAIBalance(IERC20(_from).balanceOf(address(this)));\n        // Reset approval\n        _fromIERC20.approve(ONE_INCH_ADDRESS, 0);\n    }\n\n    function getWeth() public payable onlyOwner {\n        _getWeth(msg.value);\n    }\n\n    function _getWeth(uint256 _amount) internal {\n        (bool success,) = WETH.call.value(_amount)(\"\");\n        require(success, \"failed to get weth\");\n    }\n\n    function approveWeth(uint256 _amount) public onlyOwner {\n        _approveWeth(_amount);\n    }\n\n    function _approveWeth(uint256 _amount) internal {\n        IERC20(WETH).approve(ZRX_STAKING_PROXY, _amount);\n    }\n\n    // KEEP THIS FUNCTION IN CASE THE CONTRACT RECEIVES TOKENS!\n    function withdrawToken(address _tokenAddress) public onlyOwner {\n        uint256 balance = IERC20(_tokenAddress).balanceOf(address(this));\n        IERC20(_tokenAddress).transfer(OWNER, balance);\n    }\n\n    // KEEP THIS FUNCTION IN CASE THE CONTRACT KEEPS LEFTOVER ETHER!\n    function withdrawEther() public onlyOwner {\n        address self = address(this);\n        // workaround for a possible solidity bug\n        uint256 balance = self.balance;\n        address(OWNER).transfer(balance);\n    }\n}",
  "sourcePath": "/Users/kirillmadorin/Desktop/Projects/1inch-hack/arb-bot/contracts/TradingBot.sol",
  "compiler": {
    "name": "solc",
    "version": "0.5.16+commit.9c3226ce.Emscripten.clang"
  },
  "schemaVersion": "3.3.3",
  "updatedAt": "2020-12-30T20:04:24.977Z",
  "networkType": "ethereum",
  "devdoc": {
    "methods": {}
  },
  "userdoc": {
    "methods": {}
  }
}