{
  "contractName": "TradingBot",
  "abi": [
    {
      "inputs": [],
      "payable": true,
      "stateMutability": "payable",
      "type": "constructor"
    },
    {
      "payable": true,
      "stateMutability": "payable",
      "type": "fallback"
    },
    {
      "constant": true,
      "inputs": [],
      "name": "DAI",
      "outputs": [
        {
          "internalType": "address",
          "name": "",
          "type": "address"
        }
      ],
      "payable": false,
      "stateMutability": "view",
      "type": "function"
    },
    {
      "constant": true,
      "inputs": [],
      "name": "SAI",
      "outputs": [
        {
          "internalType": "address",
          "name": "",
          "type": "address"
        }
      ],
      "payable": false,
      "stateMutability": "view",
      "type": "function"
    },
    {
      "constant": true,
      "inputs": [],
      "name": "USDC",
      "outputs": [
        {
          "internalType": "address",
          "name": "",
          "type": "address"
        }
      ],
      "payable": false,
      "stateMutability": "view",
      "type": "function"
    },
    {
      "constant": true,
      "inputs": [],
      "name": "WETH",
      "outputs": [
        {
          "internalType": "address",
          "name": "",
          "type": "address"
        }
      ],
      "payable": false,
      "stateMutability": "view",
      "type": "function"
    },
    {
      "constant": true,
      "inputs": [
        {
          "internalType": "address",
          "name": "",
          "type": "address"
        }
      ],
      "name": "currencies",
      "outputs": [
        {
          "internalType": "uint256",
          "name": "",
          "type": "uint256"
        }
      ],
      "payable": false,
      "stateMutability": "view",
      "type": "function"
    },
    {
      "constant": true,
      "inputs": [],
      "name": "loan",
      "outputs": [
        {
          "internalType": "uint256",
          "name": "",
          "type": "uint256"
        }
      ],
      "payable": false,
      "stateMutability": "view",
      "type": "function"
    },
    {
      "constant": true,
      "inputs": [
        {
          "internalType": "address",
          "name": "token",
          "type": "address"
        }
      ],
      "name": "tokenToMarketId",
      "outputs": [
        {
          "internalType": "uint256",
          "name": "",
          "type": "uint256"
        }
      ],
      "payable": false,
      "stateMutability": "view",
      "type": "function"
    },
    {
      "constant": false,
      "inputs": [
        {
          "internalType": "address",
          "name": "flashToken",
          "type": "address"
        },
        {
          "internalType": "uint256",
          "name": "flashAmount",
          "type": "uint256"
        },
        {
          "internalType": "address",
          "name": "arbToken",
          "type": "address"
        },
        {
          "internalType": "bytes",
          "name": "zrxData",
          "type": "bytes"
        },
        {
          "internalType": "bytes",
          "name": "oneInchData",
          "type": "bytes"
        }
      ],
      "name": "getFlashloan",
      "outputs": [],
      "payable": true,
      "stateMutability": "payable",
      "type": "function"
    },
    {
      "constant": false,
      "inputs": [
        {
          "internalType": "address",
          "name": "",
          "type": "address"
        },
        {
          "components": [
            {
              "internalType": "address",
              "name": "owner",
              "type": "address"
            },
            {
              "internalType": "uint256",
              "name": "number",
              "type": "uint256"
            }
          ],
          "internalType": "struct Structs.Info",
          "name": "",
          "type": "tuple"
        },
        {
          "internalType": "bytes",
          "name": "data",
          "type": "bytes"
        }
      ],
      "name": "callFunction",
      "outputs": [],
      "payable": false,
      "stateMutability": "nonpayable",
      "type": "function"
    },
    {
      "constant": false,
      "inputs": [
        {
          "internalType": "address",
          "name": "_fromToken",
          "type": "address"
        },
        {
          "internalType": "address",
          "name": "_toToken",
          "type": "address"
        },
        {
          "internalType": "uint256",
          "name": "_fromAmount",
          "type": "uint256"
        },
        {
          "internalType": "bytes",
          "name": "_0xData",
          "type": "bytes"
        },
        {
          "internalType": "bytes",
          "name": "_oneInchData",
          "type": "bytes"
        }
      ],
      "name": "arb",
      "outputs": [],
      "payable": true,
      "stateMutability": "payable",
      "type": "function"
    },
    {
      "constant": false,
      "inputs": [
        {
          "internalType": "address",
          "name": "_fromToken",
          "type": "address"
        },
        {
          "internalType": "address",
          "name": "_toToken",
          "type": "address"
        },
        {
          "internalType": "uint256",
          "name": "_fromAmount",
          "type": "uint256"
        },
        {
          "internalType": "bytes",
          "name": "_0xData",
          "type": "bytes"
        },
        {
          "internalType": "bytes",
          "name": "_1inchData",
          "type": "bytes"
        }
      ],
      "name": "trade",
      "outputs": [],
      "payable": true,
      "stateMutability": "payable",
      "type": "function"
    },
    {
      "constant": false,
      "inputs": [
        {
          "internalType": "address",
          "name": "_from",
          "type": "address"
        },
        {
          "internalType": "uint256",
          "name": "_amount",
          "type": "uint256"
        },
        {
          "internalType": "bytes",
          "name": "_calldataHexString",
          "type": "bytes"
        }
      ],
      "name": "zrxSwap",
      "outputs": [],
      "payable": true,
      "stateMutability": "payable",
      "type": "function"
    },
    {
      "constant": false,
      "inputs": [
        {
          "internalType": "address",
          "name": "_from",
          "type": "address"
        },
        {
          "internalType": "uint256",
          "name": "_amount",
          "type": "uint256"
        },
        {
          "internalType": "bytes",
          "name": "_oneInchCallData",
          "type": "bytes"
        }
      ],
      "name": "oneInchSwap",
      "outputs": [],
      "payable": true,
      "stateMutability": "payable",
      "type": "function"
    },
    {
      "constant": false,
      "inputs": [],
      "name": "getWeth",
      "outputs": [],
      "payable": true,
      "stateMutability": "payable",
      "type": "function"
    },
    {
      "constant": false,
      "inputs": [
        {
          "internalType": "uint256",
          "name": "_amount",
          "type": "uint256"
        }
      ],
      "name": "approveWeth",
      "outputs": [],
      "payable": false,
      "stateMutability": "nonpayable",
      "type": "function"
    },
    {
      "constant": false,
      "inputs": [
        {
          "internalType": "address",
          "name": "_tokenAddress",
          "type": "address"
        }
      ],
      "name": "withdrawToken",
      "outputs": [],
      "payable": false,
      "stateMutability": "nonpayable",
      "type": "function"
    },
    {
      "constant": false,
      "inputs": [],
      "name": "withdrawEther",
      "outputs": [],
      "payable": false,
      "stateMutability": "nonpayable",
      "type": "function"
    }
  ],
  "bytecode": "0x6080604052731e0447b19bb6ecfdae1e4ae1694b0c3659614e4e6000806101000a81548173ffffffffffffffffffffffffffffffffffffffff021916908373ffffffffffffffffffffffffffffffffffffffff16021790555073c02aaa39b223fe8d0a0e5c4f27ead9083c756cc2600160006101000a81548173ffffffffffffffffffffffffffffffffffffffff021916908373ffffffffffffffffffffffffffffffffffffffff1602179055507389d24a6b4ccb1b6faa2625fe562bdd9a23260359600260006101000a81548173ffffffffffffffffffffffffffffffffffffffff021916908373ffffffffffffffffffffffffffffffffffffffff16021790555073a0b86991c6218b36c1d19d4a2e9eb0ce3606eb48600360006101000a81548173ffffffffffffffffffffffffffffffffffffffff021916908373ffffffffffffffffffffffffffffffffffffffff160217905550736b175474e89094c44da98b954eedeac495271d0f600460006101000a81548173ffffffffffffffffffffffffffffffffffffffff021916908373ffffffffffffffffffffffffffffffffffffffff16021790555073111111125434b319222cdbf8c261674adb56f3ae600860006101000a81548173ffffffffffffffffffffffffffffffffffffffff021916908373ffffffffffffffffffffffffffffffffffffffff1602179055507361935cbdd02287b511119ddb11aeb42f1593b7ef600960006101000a81548173ffffffffffffffffffffffffffffffffffffffff021916908373ffffffffffffffffffffffffffffffffffffffff1602179055507395e6f48254609a6ee006f7d493c8e5fb97094cef600a60006101000a81548173ffffffffffffffffffffffffffffffffffffffff021916908373ffffffffffffffffffffffffffffffffffffffff16021790555073a26e80e7dea86279c6d778d702cc413e6cffa777600b60006101000a81548173ffffffffffffffffffffffffffffffffffffffff021916908373ffffffffffffffffffffffffffffffffffffffff160217905550600160056000600160009054906101000a900473ffffffffffffffffffffffffffffffffffffffff1673ffffffffffffffffffffffffffffffffffffffff1673ffffffffffffffffffffffffffffffffffffffff16815260200190815260200160002081905550600260056000600260009054906101000a900473ffffffffffffffffffffffffffffffffffffffff1673ffffffffffffffffffffffffffffffffffffffff1673ffffffffffffffffffffffffffffffffffffffff16815260200190815260200160002081905550600360056000600360009054906101000a900473ffffffffffffffffffffffffffffffffffffffff1673ffffffffffffffffffffffffffffffffffffffff1673ffffffffffffffffffffffffffffffffffffffff16815260200190815260200160002081905550600460056000600460009054906101000a900473ffffffffffffffffffffffffffffffffffffffff1673ffffffffffffffffffffffffffffffffffffffff1673ffffffffffffffffffffffffffffffffffffffff16815260200190815260200160002081905550620004ad346200050560201b60201c565b620004be34620005de60201b60201c565b33600760006101000a81548173ffffffffffffffffffffffffffffffffffffffff021916908373ffffffffffffffffffffffffffffffffffffffff16021790555062000862565b6000600160009054906101000a900473ffffffffffffffffffffffffffffffffffffffff1673ffffffffffffffffffffffffffffffffffffffff16826040516200054f906200077c565b60006040518083038185875af1925050503d80600081146200058e576040519150601f19603f3d011682016040523d82523d6000602084013e62000593565b606091505b5050905080620005da576040517f08c379a0000000000000000000000000000000000000000000000000000000008152600401620005d190620007c0565b60405180910390fd5b5050565b600160009054906101000a900473ffffffffffffffffffffffffffffffffffffffff1673ffffffffffffffffffffffffffffffffffffffff1663095ea7b3600b60009054906101000a900473ffffffffffffffffffffffffffffffffffffffff16836040518363ffffffff1660e01b81526004016200065f92919062000793565b602060405180830381600087803b1580156200067a57600080fd5b505af11580156200068f573d6000803e3d6000fd5b505050506040513d601f19601f82011682018060405250620006b59190810190620006d0565b5050565b600081519050620006ca8162000848565b92915050565b600060208284031215620006e357600080fd5b6000620006f384828501620006b9565b91505092915050565b6200070781620007fe565b82525050565b60006200071c601283620007ed565b91507f6661696c656420746f20676574207765746800000000000000000000000000006000830152602082019050919050565b60006200075e600083620007e2565b9150600082019050919050565b62000776816200083e565b82525050565b600062000789826200074f565b9150819050919050565b6000604082019050620007aa6000830185620006fc565b620007b960208301846200076b565b9392505050565b60006020820190508181036000830152620007db816200070d565b9050919050565b600081905092915050565b600082825260208201905092915050565b60006200080b826200081e565b9050919050565b60008115159050919050565b600073ffffffffffffffffffffffffffffffffffffffff82169050919050565b6000819050919050565b620008538162000812565b81146200085f57600080fd5b50565b612ccd80620008726000396000f3fe6080604052600436106100fe5760003560e01c80638b41871311610095578063c8c61a7911610064578063c8c61a79146102c2578063d285b7b4146102de578063df1e664614610309578063e0bab4c414610332578063f115b7be1461035d576100fe565b80638b41871314610215578063a03017ec1461023e578063ad5c46481461025a578063b826878814610285576100fe565b80636036cba3116100d15780636036cba31461016d5780637362377b146101aa57806389476069146101c157806389a30271146101ea576100fe565b806308cc30c814610100578063107c279f1461011c5780634b3fb7f8146101265780634f591a4514610151575b005b61011a6004803603610115919081019061201b565b610379565b005b6101246104de565b005b34801561013257600080fd5b5061013b610579565b6040516101489190612722565b60405180910390f35b61016b60048036036101669190810190611f08565b61059f565b005b34801561017957600080fd5b50610194600480360361018f9190810190611e26565b610643565b6040516101a1919061293d565b60405180910390f35b3480156101b657600080fd5b506101bf61065b565b005b3480156101cd57600080fd5b506101e860048036036101e39190810190611e26565b610779565b005b3480156101f657600080fd5b506101ff61094a565b60405161020c9190612722565b60405180910390f35b34801561022157600080fd5b5061023c60048036036102379190810190611faf565b610970565b005b610258600480360361025391908101906120cb565b610b15565b005b34801561026657600080fd5b5061026f610bb5565b60405161027c9190612722565b60405180910390f35b34801561029157600080fd5b506102ac60048036036102a79190810190611e26565b610bdb565b6040516102b9919061293d565b60405180910390f35b6102dc60048036036102d791908101906120cb565b610c70565b005b3480156102ea57600080fd5b506102f3610d10565b604051610300919061293d565b60405180910390f35b34801561031557600080fd5b50610330600480360361032b919081019061215b565b610d16565b005b34801561033e57600080fd5b50610347610db2565b6040516103549190612722565b60405180910390f35b61037760048036036103729190810190611f08565b610dd8565b005b600760009054906101000a900473ffffffffffffffffffffffffffffffffffffffff1673ffffffffffffffffffffffffffffffffffffffff163373ffffffffffffffffffffffffffffffffffffffff1614610409576040517f08c379a00000000000000000000000000000000000000000000000000000000081526004016104009061287d565b60405180910390fd5b60008773ffffffffffffffffffffffffffffffffffffffff166370a08231306040518263ffffffff1660e01b8152600401610444919061273d565b60206040518083038186803b15801561045c57600080fd5b505afa158015610470573d6000803e3d6000fd5b505050506040513d601f19601f820116820180604052506104949190810190612184565b9050606088888389898989896040516020016104b79897969594939291906127d3565b60405160208183030381529060405290506104d3898983610e7c565b505050505050505050565b600760009054906101000a900473ffffffffffffffffffffffffffffffffffffffff1673ffffffffffffffffffffffffffffffffffffffff163373ffffffffffffffffffffffffffffffffffffffff161461056e576040517f08c379a00000000000000000000000000000000000000000000000000000000081526004016105659061287d565b60405180910390fd5b610577346112eb565b565b600260009054906101000a900473ffffffffffffffffffffffffffffffffffffffff1681565b600760009054906101000a900473ffffffffffffffffffffffffffffffffffffffff1673ffffffffffffffffffffffffffffffffffffffff163373ffffffffffffffffffffffffffffffffffffffff161461062f576040517f08c379a00000000000000000000000000000000000000000000000000000000081526004016106269061287d565b60405180910390fd5b61063c85858585856113bd565b5050505050565b60056020528060005260406000206000915090505481565b600760009054906101000a900473ffffffffffffffffffffffffffffffffffffffff1673ffffffffffffffffffffffffffffffffffffffff163373ffffffffffffffffffffffffffffffffffffffff16146106eb576040517f08c379a00000000000000000000000000000000000000000000000000000000081526004016106e29061287d565b60405180910390fd5b600030905060008173ffffffffffffffffffffffffffffffffffffffff16319050600760009054906101000a900473ffffffffffffffffffffffffffffffffffffffff1673ffffffffffffffffffffffffffffffffffffffff166108fc829081150290604051600060405180830381858888f19350505050158015610774573d6000803e3d6000fd5b505050565b600760009054906101000a900473ffffffffffffffffffffffffffffffffffffffff1673ffffffffffffffffffffffffffffffffffffffff163373ffffffffffffffffffffffffffffffffffffffff1614610809576040517f08c379a00000000000000000000000000000000000000000000000000000000081526004016108009061287d565b60405180910390fd5b60008173ffffffffffffffffffffffffffffffffffffffff166370a08231306040518263ffffffff1660e01b8152600401610844919061273d565b60206040518083038186803b15801561085c57600080fd5b505afa158015610870573d6000803e3d6000fd5b505050506040513d601f19601f820116820180604052506108949190810190612184565b90508173ffffffffffffffffffffffffffffffffffffffff1663a9059cbb600760009054906101000a900473ffffffffffffffffffffffffffffffffffffffff16836040518363ffffffff1660e01b81526004016108f3929190612758565b602060405180830381600087803b15801561090d57600080fd5b505af1158015610921573d6000803e3d6000fd5b505050506040513d601f19601f820116820180604052506109459190810190612132565b505050565b600360009054906101000a900473ffffffffffffffffffffffffffffffffffffffff1681565b6000809054906101000a900473ffffffffffffffffffffffffffffffffffffffff1673ffffffffffffffffffffffffffffffffffffffff163373ffffffffffffffffffffffffffffffffffffffff16146109ff576040517f08c379a00000000000000000000000000000000000000000000000000000000081526004016109f6906128dd565b60405180910390fd5b6000806000806060808787610a179190810190611e4f565b95509550955095509550955060008673ffffffffffffffffffffffffffffffffffffffff166370a08231306040518263ffffffff1660e01b8152600401610a5e919061273d565b60206040518083038186803b158015610a7657600080fd5b505afa158015610a8a573d6000803e3d6000fd5b505050506040513d601f19601f82011682018060405250610aae9190810190612184565b90508585820314610af4576040517f08c379a0000000000000000000000000000000000000000000000000000000008152600401610aeb906128fd565b60405180910390fd5b80600681905550610b0887858886866113bd565b5050505050505050505050565b600760009054906101000a900473ffffffffffffffffffffffffffffffffffffffff1673ffffffffffffffffffffffffffffffffffffffff163373ffffffffffffffffffffffffffffffffffffffff1614610ba5576040517f08c379a0000000000000000000000000000000000000000000000000000000008152600401610b9c9061287d565b60405180910390fd5b610bb083838361152f565b505050565b600160009054906101000a900473ffffffffffffffffffffffffffffffffffffffff1681565b600080600560008473ffffffffffffffffffffffffffffffffffffffff1673ffffffffffffffffffffffffffffffffffffffff1681526020019081526020016000205490506000811415610c64576040517f08c379a0000000000000000000000000000000000000000000000000000000008152600401610c5b9061291d565b60405180910390fd5b60018103915050919050565b600760009054906101000a900473ffffffffffffffffffffffffffffffffffffffff1673ffffffffffffffffffffffffffffffffffffffff163373ffffffffffffffffffffffffffffffffffffffff1614610d00576040517f08c379a0000000000000000000000000000000000000000000000000000000008152600401610cf79061287d565b60405180910390fd5b610d0b838383611728565b505050565b60065481565b600760009054906101000a900473ffffffffffffffffffffffffffffffffffffffff1673ffffffffffffffffffffffffffffffffffffffff163373ffffffffffffffffffffffffffffffffffffffff1614610da6576040517f08c379a0000000000000000000000000000000000000000000000000000000008152600401610d9d9061287d565b60405180910390fd5b610daf81611921565b50565b600460009054906101000a900473ffffffffffffffffffffffffffffffffffffffff1681565b600760009054906101000a900473ffffffffffffffffffffffffffffffffffffffff1673ffffffffffffffffffffffffffffffffffffffff163373ffffffffffffffffffffffffffffffffffffffff1614610e68576040517f08c379a0000000000000000000000000000000000000000000000000000000008152600401610e5f9061287d565b60405180910390fd5b610e7585858585856119f6565b5050505050565b8273ffffffffffffffffffffffffffffffffffffffff1663095ea7b36000809054906101000a900473ffffffffffffffffffffffffffffffffffffffff16600185016040518363ffffffff1660e01b8152600401610edb9291906127aa565b602060405180830381600087803b158015610ef557600080fd5b505af1158015610f09573d6000803e3d6000fd5b505050506040513d601f19601f82011682018060405250610f2d9190810190612132565b5060606001604051908082528060200260200182016040528015610f6b57816020015b610f58611b2c565b815260200190600190039081610f505790505b50905060606003604051908082528060200260200182016040528015610fab57816020015b610f98611b5c565b815260200190600190039081610f905790505b50905060405180604001604052803073ffffffffffffffffffffffffffffffffffffffff168152602001600081525082600081518110610fe757fe5b6020026020010181905250610ffa611bc8565b604051806080016040528060001515815260200160008081111561101a57fe5b815260200160008081111561102b57fe5b815260200186815250905061103e611c06565b60018160000190600881111561105057fe5b9081600881111561105d57fe5b81525050600081602001818152505081816040018190525061107e87610bdb565b816060018181525050308160a0019073ffffffffffffffffffffffffffffffffffffffff16908173ffffffffffffffffffffffffffffffffffffffff168152505080836000815181106110cd57fe5b60200260200101819052506110e0611c06565b6008816000019060088111156110f257fe5b908160088111156110ff57fe5b815250506000816020018181525050308160a0019073ffffffffffffffffffffffffffffffffffffffff16908173ffffffffffffffffffffffffffffffffffffffff1681525050858160e00181905250808460018151811061115d57fe5b6020026020010181905250611170611c06565b611178611bc8565b604051806080016040528060011515815260200160008081111561119857fe5b81526020016000808111156111a957fe5b815260200160018b0181525090506000826000019060088111156111c957fe5b908160088111156111d657fe5b8152505060008260200181815250508082604001819052506111f78a610bdb565b826060018181525050308260a0019073ffffffffffffffffffffffffffffffffffffffff16908173ffffffffffffffffffffffffffffffffffffffff1681525050818660028151811061124657fe5b60200260200101819052506000809054906101000a900473ffffffffffffffffffffffffffffffffffffffff1673ffffffffffffffffffffffffffffffffffffffff1663a67a6a4588886040518363ffffffff1660e01b81526004016112ad929190612846565b600060405180830381600087803b1580156112c757600080fd5b505af11580156112db573d6000803e3d6000fd5b5050505050505050505050505050565b6000600160009054906101000a900473ffffffffffffffffffffffffffffffffffffffff1673ffffffffffffffffffffffffffffffffffffffff16826040516113339061270d565b60006040518083038185875af1925050503d8060008114611370576040519150601f19603f3d011682016040523d82523d6000602084013e611375565b606091505b50509050806113b9576040517f08c379a00000000000000000000000000000000000000000000000000000000081526004016113b0906128bd565b60405180910390fd5b5050565b60008573ffffffffffffffffffffffffffffffffffffffff166370a08231306040518263ffffffff1660e01b81526004016113f8919061273d565b60206040518083038186803b15801561141057600080fd5b505afa158015611424573d6000803e3d6000fd5b505050506040513d601f19601f820116820180604052506114489190810190612184565b905061145786868686866119f6565b60008673ffffffffffffffffffffffffffffffffffffffff166370a08231306040518263ffffffff1660e01b8152600401611492919061273d565b60206040518083038186803b1580156114aa57600080fd5b505afa1580156114be573d6000803e3d6000fd5b505050506040513d601f19601f820116820180604052506114e29190810190612184565b9050818111611526576040517f08c379a000000000000000000000000000000000000000000000000000000000815260040161151d9061289d565b60405180910390fd5b50505050505050565b60008390508073ffffffffffffffffffffffffffffffffffffffff1663095ea7b3600860009054906101000a900473ffffffffffffffffffffffffffffffffffffffff16856040518363ffffffff1660e01b81526004016115919291906127aa565b602060405180830381600087803b1580156115ab57600080fd5b505af11580156115bf573d6000803e3d6000fd5b505050506040513d601f19601f820116820180604052506115e39190810190612132565b50600860009054906101000a900473ffffffffffffffffffffffffffffffffffffffff1673ffffffffffffffffffffffffffffffffffffffff16348360405161162c91906126f6565b60006040518083038185875af1925050503d8060008114611669576040519150601f19603f3d011682016040523d82523d6000602084013e61166e565b606091505b5050508073ffffffffffffffffffffffffffffffffffffffff1663095ea7b3600860009054906101000a900473ffffffffffffffffffffffffffffffffffffffff1660006040518363ffffffff1660e01b81526004016116cf929190612781565b602060405180830381600087803b1580156116e957600080fd5b505af11580156116fd573d6000803e3d6000fd5b505050506040513d601f19601f820116820180604052506117219190810190612132565b5050505050565b60008390508073ffffffffffffffffffffffffffffffffffffffff1663095ea7b3600a60009054906101000a900473ffffffffffffffffffffffffffffffffffffffff16856040518363ffffffff1660e01b815260040161178a9291906127aa565b602060405180830381600087803b1580156117a457600080fd5b505af11580156117b8573d6000803e3d6000fd5b505050506040513d601f19601f820116820180604052506117dc9190810190612132565b50600960009054906101000a900473ffffffffffffffffffffffffffffffffffffffff1673ffffffffffffffffffffffffffffffffffffffff16348360405161182591906126f6565b60006040518083038185875af1925050503d8060008114611862576040519150601f19603f3d011682016040523d82523d6000602084013e611867565b606091505b5050508073ffffffffffffffffffffffffffffffffffffffff1663095ea7b3600a60009054906101000a900473ffffffffffffffffffffffffffffffffffffffff1660006040518363ffffffff1660e01b81526004016118c8929190612781565b602060405180830381600087803b1580156118e257600080fd5b505af11580156118f6573d6000803e3d6000fd5b505050506040513d601f19601f8201168201806040525061191a9190810190612132565b5050505050565b600160009054906101000a900473ffffffffffffffffffffffffffffffffffffffff1673ffffffffffffffffffffffffffffffffffffffff1663095ea7b3600b60009054906101000a900473ffffffffffffffffffffffffffffffffffffffff16836040518363ffffffff1660e01b81526004016119a09291906127aa565b602060405180830381600087803b1580156119ba57600080fd5b505af11580156119ce573d6000803e3d6000fd5b505050506040513d601f19601f820116820180604052506119f29190810190612132565b5050565b60008473ffffffffffffffffffffffffffffffffffffffff166370a08231306040518263ffffffff1660e01b8152600401611a31919061273d565b60206040518083038186803b158015611a4957600080fd5b505afa158015611a5d573d6000803e3d6000fd5b505050506040513d601f19601f82011682018060405250611a819190810190612184565b9050611a8e868585611728565b60008573ffffffffffffffffffffffffffffffffffffffff166370a08231306040518263ffffffff1660e01b8152600401611ac9919061273d565b60206040518083038186803b158015611ae157600080fd5b505afa158015611af5573d6000803e3d6000fd5b505050506040513d601f19601f82011682018060405250611b199190810190612184565b9050600082820390505050505050505050565b6040518060400160405280600073ffffffffffffffffffffffffffffffffffffffff168152602001600081525090565b60405180610100016040528060006008811115611b7557fe5b815260200160008152602001611b89611c72565b81526020016000815260200160008152602001600073ffffffffffffffffffffffffffffffffffffffff16815260200160008152602001606081525090565b6040518060800160405280600015158152602001600080811115611be857fe5b8152602001600080811115611bf957fe5b8152602001600081525090565b60405180610100016040528060006008811115611c1f57fe5b815260200160008152602001611c33611c72565b81526020016000815260200160008152602001600073ffffffffffffffffffffffffffffffffffffffff16815260200160008152602001606081525090565b6040518060800160405280600015158152602001600080811115611c9257fe5b8152602001600080811115611ca357fe5b8152602001600081525090565b600081359050611cbf81612c2e565b92915050565b600081359050611cd481612c45565b92915050565b600081519050611ce981612c5c565b92915050565b60008083601f840112611d0157600080fd5b8235905067ffffffffffffffff811115611d1a57600080fd5b602083019150836001820283011115611d3257600080fd5b9250929050565b600082601f830112611d4a57600080fd5b8135611d5d611d5882612985565b612958565b91508082526020830160208301858383011115611d7957600080fd5b611d84838284612bb4565b50505092915050565b600082601f830112611d9e57600080fd5b8135611db1611dac826129b1565b612958565b91508082526020830160208301858383011115611dcd57600080fd5b611dd8838284612bb4565b50505092915050565b600060408284031215611df357600080fd5b81905092915050565b600081359050611e0b81612c73565b92915050565b600081519050611e2081612c73565b92915050565b600060208284031215611e3857600080fd5b6000611e4684828501611cb0565b91505092915050565b60008060008060008060c08789031215611e6857600080fd5b6000611e7689828a01611cc5565b9650506020611e8789828a01611dfc565b9550506040611e9889828a01611dfc565b9450506060611ea989828a01611cc5565b935050608087013567ffffffffffffffff811115611ec657600080fd5b611ed289828a01611d39565b92505060a087013567ffffffffffffffff811115611eef57600080fd5b611efb89828a01611d39565b9150509295509295509295565b600080600080600060a08688031215611f2057600080fd5b6000611f2e88828901611cb0565b9550506020611f3f88828901611cb0565b9450506040611f5088828901611dfc565b935050606086013567ffffffffffffffff811115611f6d57600080fd5b611f7988828901611d8d565b925050608086013567ffffffffffffffff811115611f9657600080fd5b611fa288828901611d8d565b9150509295509295909350565b60008060008060808587031215611fc557600080fd5b6000611fd387828801611cb0565b9450506020611fe487828801611de1565b935050606085013567ffffffffffffffff81111561200157600080fd5b61200d87828801611cef565b925092505092959194509250565b600080600080600080600060a0888a03121561203657600080fd5b60006120448a828b01611cb0565b97505060206120558a828b01611dfc565b96505060406120668a828b01611cb0565b955050606088013567ffffffffffffffff81111561208357600080fd5b61208f8a828b01611cef565b9450945050608088013567ffffffffffffffff8111156120ae57600080fd5b6120ba8a828b01611cef565b925092505092959891949750929550565b6000806000606084860312156120e057600080fd5b60006120ee86828701611cb0565b93505060206120ff86828701611dfc565b925050604084013567ffffffffffffffff81111561211c57600080fd5b61212886828701611d8d565b9150509250925092565b60006020828403121561214457600080fd5b600061215284828501611cda565b91505092915050565b60006020828403121561216d57600080fd5b600061217b84828501611dfc565b91505092915050565b60006020828403121561219657600080fd5b60006121a484828501611e11565b91505092915050565b60006121b983836125a1565b905092915050565b60006121cd83836126a9565b60408301905092915050565b6121e281612b36565b82525050565b6121f181612aa3565b82525050565b61220081612aa3565b82525050565b6000612211826129fd565b61221b8185612a43565b93508360208202850161222d856129dd565b8060005b85811015612269578484038952815161224a85826121ad565b945061225583612a29565b925060208a01995050600181019050612231565b50829750879550505050505092915050565b600061228682612a08565b6122908185612a54565b935061229b836129ed565b8060005b838110156122cc5781516122b388826121c1565b97506122be83612a36565b92505060018101905061229f565b5085935050505092915050565b6122e281612ac7565b82525050565b60006122f48385612a76565b9350612301838584612bb4565b61230a83612bf6565b840190509392505050565b600061232082612a1e565b61232a8185612a87565b935061233a818560208601612bc3565b80840191505092915050565b600061235182612a13565b61235b8185612a65565b935061236b818560208601612bc3565b61237481612bf6565b840191505092915050565b61238881612b48565b82525050565b61239781612b5a565b82525050565b6123a681612b6c565b82525050565b6123b581612b7e565b82525050565b60006123c8601883612a92565b91507f63616c6c6572206973206e6f7420746865206f776e65722100000000000000006000830152602082019050919050565b6000612408602683612a92565b91507f456e642062616c616e6365206d7573742065786365656420737461727420626160008301527f6c616e63652e00000000000000000000000000000000000000000000000000006020830152604082019050919050565b600061246e601283612a92565b91507f6661696c656420746f20676574207765746800000000000000000000000000006000830152602082019050919050565b60006124ae602c83612a92565b91507f466c6173684c6f616e3a20636f756c642062652063616c6c656420627920447960008301527f447820706f6f6c206f6e6c7900000000000000000000000000000000000000006020830152604082019050919050565b6000612514601d83612a92565b91507f636f6e747261637420646964206e6f742067657420746865206c6f616e0000006000830152602082019050919050565b6000612554600083612a87565b9150600082019050919050565b600061256e601c83612a92565b91507f466c6173684c6f616e3a20556e737570706f7274656420746f6b656e000000006000830152602082019050919050565b6000610160830160008301516125ba600086018261237f565b5060208301516125cd60208601826126d8565b5060408301516125e06040860182612654565b5060608301516125f360c08601826126d8565b50608083015161260660e08601826126d8565b5060a083015161261a6101008601826121e8565b5060c083015161262e6101208601826126d8565b5060e08301518482036101408601526126478282612346565b9150508091505092915050565b60808201600082015161266a60008501826122d9565b50602082015161267d602085018261238e565b506040820151612690604085018261239d565b5060608201516126a360608501826126d8565b50505050565b6040820160008201516126bf60008501826121e8565b5060208201516126d260208501826126d8565b50505050565b6126e181612b2c565b82525050565b6126f081612b2c565b82525050565b60006127028284612315565b915081905092915050565b600061271882612547565b9150819050919050565b600060208201905061273760008301846121f7565b92915050565b600060208201905061275260008301846121d9565b92915050565b600060408201905061276d60008301856121d9565b61277a60208301846126e7565b9392505050565b600060408201905061279660008301856121f7565b6127a360208301846123ac565b9392505050565b60006040820190506127bf60008301856121f7565b6127cc60208301846126e7565b9392505050565b600060c0820190506127e8600083018b6121f7565b6127f5602083018a6126e7565b61280260408301896126e7565b61280f60608301886121f7565b81810360808301526128228186886122e8565b905081810360a08301526128378184866122e8565b90509998505050505050505050565b60006040820190508181036000830152612860818561227b565b905081810360208301526128748184612206565b90509392505050565b60006020820190508181036000830152612896816123bb565b9050919050565b600060208201905081810360008301526128b6816123fb565b9050919050565b600060208201905081810360008301526128d681612461565b9050919050565b600060208201905081810360008301526128f6816124a1565b9050919050565b6000602082019050818103600083015261291681612507565b9050919050565b6000602082019050818103600083015261293681612561565b9050919050565b600060208201905061295260008301846126e7565b92915050565b6000604051905081810181811067ffffffffffffffff8211171561297b57600080fd5b8060405250919050565b600067ffffffffffffffff82111561299c57600080fd5b601f19601f8301169050602081019050919050565b600067ffffffffffffffff8211156129c857600080fd5b601f19601f8301169050602081019050919050565b6000819050602082019050919050565b6000819050602082019050919050565b600081519050919050565b600081519050919050565b600081519050919050565b600081519050919050565b6000602082019050919050565b6000602082019050919050565b600082825260208201905092915050565b600082825260208201905092915050565b600082825260208201905092915050565b600082825260208201905092915050565b600081905092915050565b600082825260208201905092915050565b6000612aae82612b0c565b9050919050565b6000612ac082612b0c565b9050919050565b60008115159050919050565b6000819050612ae182612c07565b919050565b6000819050612af482612c14565b919050565b6000819050612b0782612c21565b919050565b600073ffffffffffffffffffffffffffffffffffffffff82169050919050565b6000819050919050565b6000612b4182612b90565b9050919050565b6000612b5382612ad3565b9050919050565b6000612b6582612ae6565b9050919050565b6000612b7782612af9565b9050919050565b6000612b8982612b2c565b9050919050565b6000612b9b82612ba2565b9050919050565b6000612bad82612b0c565b9050919050565b82818337600083830152505050565b60005b83811015612be1578082015181840152602081019050612bc6565b83811115612bf0576000848401525b50505050565b6000601f19601f8301169050919050565b60098110612c1157fe5b50565b60018110612c1e57fe5b50565b60018110612c2b57fe5b50565b612c3781612aa3565b8114612c4257600080fd5b50565b612c4e81612ab5565b8114612c5957600080fd5b50565b612c6581612ac7565b8114612c7057600080fd5b50565b612c7c81612b2c565b8114612c8757600080fd5b5056fea365627a7a72315820394f309cd9f230c54fb9bc7ab29da3ed81cf57d74bf1fe44683da2b9b4f5cdf26c6578706572696d656e74616cf564736f6c63430005100040",
  "source": "pragma solidity ^0.5.0;\npragma experimental ABIEncoderV2;\n\n\ninterface Structs {\n    struct SwapDescription {\n        IERC20 srcToken;\n        IERC20 dstToken;\n        address srcReceiver;\n        address dstReceiver;\n        uint256 amount;\n        uint256 minReturnAmount;\n        uint256 guaranteedAmount;\n        uint256 flags;\n        address referrer;\n        bytes permit;\n    }\n\n    struct Val {\n        uint256 value;\n    }\n\n    enum ActionType {\n        Deposit, // supply tokens\n        Withdraw, // borrow tokens\n        Transfer, // transfer balance between accounts\n        Buy, // buy an amount of some token (externally)\n        Sell, // sell an amount of some token (externally)\n        Trade, // trade tokens against another account\n        Liquidate, // liquidate an undercollateralized or expiring account\n        Vaporize, // use excess tokens to zero-out a completely negative account\n        Call       // send arbitrary data to an address\n    }\n\n    enum AssetDenomination {\n        Wei // the amount is denominated in wei\n    }\n\n    enum AssetReference {\n        Delta // the amount is given as a delta from the current value\n    }\n\n    struct AssetAmount {\n        bool sign; // true if positive\n        AssetDenomination denomination;\n        AssetReference ref;\n        uint256 value;\n    }\n\n    struct ActionArgs {\n        ActionType actionType;\n        uint256 accountId;\n        AssetAmount amount;\n        uint256 primaryMarketId;\n        uint256 secondaryMarketId;\n        address otherAddress;\n        uint256 otherAccountId;\n        bytes data;\n    }\n\n    struct Info {\n        address owner;  // The address that owns the account\n        uint256 number; // A nonce that allows a single address to control many accounts\n    }\n\n    struct Wei {\n        bool sign; // true if positive\n        uint256 value;\n    }\n}\n\ncontract DyDxPool is Structs {\n    function getAccountWei(Info memory account, uint256 marketId) public view returns (Wei memory);\n    function operate(Info[] memory, ActionArgs[] memory) public;\n}\n\n/**\n * @dev Interface of the ERC20 standard as defined in the EIP. Does not include\n * the optional functions; to access them see `ERC20Detailed`.\n */\ninterface IERC20 {\n    function totalSupply() external view returns (uint256);\n\n    function balanceOf(address account) external view returns (uint256);\n\n    function transfer(address recipient, uint256 amount) external returns (bool);\n\n    function allowance(address owner, address spender) external view returns (uint256);\n\n    function approve(address spender, uint256 amount) external returns (bool);\n\n    function transferFrom(address sender, address recipient, uint256 amount) external returns (bool);\n\n    event Transfer(address indexed from, address indexed to, uint256 value);\n    event Approval(address indexed owner, address indexed spender, uint256 value);\n}\n\ncontract DyDxFlashLoan is Structs {\n    DyDxPool pool = DyDxPool(0x1E0447b19BB6EcFdAe1e4AE1694b0C3659614e4e);\n\n    address public WETH = 0xC02aaA39b223FE8D0A0e5C4F27eAD9083C756Cc2;\n    address public SAI = 0x89d24A6b4CcB1B6fAA2625fE562bDD9a23260359;\n    address public USDC = 0xA0b86991c6218b36c1d19D4a2e9Eb0cE3606eB48;\n    address public DAI = 0x6B175474E89094C44Da98b954EedeAC495271d0F;\n    mapping(address => uint256) public currencies;\n\n    constructor() public {\n        currencies[WETH] = 1;\n        currencies[SAI] = 2;\n        currencies[USDC] = 3;\n        currencies[DAI] = 4;\n    }\n\n    modifier onlyPool() {\n        require(\n            msg.sender == address(pool),\n            \"FlashLoan: could be called by DyDx pool only\"\n        );\n        _;\n    }\n\n    function tokenToMarketId(address token) public view returns (uint256) {\n        uint256 marketId = currencies[token];\n        require(marketId != 0, \"FlashLoan: Unsupported token\");\n        return marketId - 1;\n    }\n\n    // the DyDx will call `callFunction(address sender, Info memory accountInfo, bytes memory data) public` after during `operate` call\n    function flashloan(address token, uint256 amount, bytes memory data)\n    internal\n    {\n        IERC20(token).approve(address(pool), amount + 1);\n        Info[] memory infos = new Info[](1);\n        ActionArgs[] memory args = new ActionArgs[](3);\n\n        infos[0] = Info(address(this), 0);\n\n        AssetAmount memory wamt = AssetAmount(\n            false,\n            AssetDenomination.Wei,\n            AssetReference.Delta,\n            amount\n        );\n        ActionArgs memory withdraw;\n        withdraw.actionType = ActionType.Withdraw;\n        withdraw.accountId = 0;\n        withdraw.amount = wamt;\n        withdraw.primaryMarketId = tokenToMarketId(token);\n        withdraw.otherAddress = address(this);\n\n        args[0] = withdraw;\n\n        ActionArgs memory call;\n        call.actionType = ActionType.Call;\n        call.accountId = 0;\n        call.otherAddress = address(this);\n        call.data = data;\n\n        args[1] = call;\n\n        ActionArgs memory deposit;\n        AssetAmount memory damt = AssetAmount(\n            true,\n            AssetDenomination.Wei,\n            AssetReference.Delta,\n            amount + 1\n        );\n        deposit.actionType = ActionType.Deposit;\n        deposit.accountId = 0;\n        deposit.amount = damt;\n        deposit.primaryMarketId = tokenToMarketId(token);\n        deposit.otherAddress = address(this);\n\n        args[2] = deposit;\n\n        pool.operate(infos, args);\n    }\n}\n\n// SPDX-License-Identifier: MIT\n\ncontract TradingBot is DyDxFlashLoan {\n    uint256 public loan;\n\n    // Addresses\n    address payable OWNER;\n\n    // OneInch Config\n    address ONE_INCH_ADDRESS = 0x111111125434b319222CdBf8C261674aDB56F3ae;\n\n    // ZRX Config\n    address ZRX_EXCHANGE_ADDRESS = 0x61935CbDd02287B511119DDb11Aeb42F1593b7Ef;\n    address ZRX_ERC20_PROXY_ADDRESS = 0x95E6F48254609A6ee006F7D493c8e5fB97094ceF;\n    address ZRX_STAKING_PROXY = 0xa26e80e7Dea86279c6d778D702Cc413E6CFfA777; // Fee collector\n\n    // Modifiers\n    modifier onlyOwner() {\n        require(msg.sender == OWNER, \"caller is not the owner!\");\n        _;\n    }\n\n    // Allow the contract to receive Ether\n    function () external payable {}\n\n    constructor() public payable {\n        _getWeth(msg.value);\n        _approveWeth(msg.value);\n        OWNER = msg.sender;\n    }\n\n    function getFlashloan(address flashToken, uint256 flashAmount, address arbToken, bytes calldata zrxData, bytes calldata oneInchData) external payable onlyOwner {\n        uint256 balanceBefore = IERC20(flashToken).balanceOf(address(this));\n        bytes memory data = abi.encode(flashToken, flashAmount, balanceBefore, arbToken, zrxData, oneInchData);\n        flashloan(flashToken, flashAmount, data);\n        // execution goes to `callFunction`\n\n        // and this point we have succefully paid the dept\n    }\n\n    function callFunction(\n        address, /* sender */\n        Info calldata, /* accountInfo */\n        bytes calldata data\n    ) external onlyPool {\n        (address flashToken, uint256 flashAmount, uint256 balanceBefore, address arbToken, bytes memory zrxData, bytes memory oneInchData) = abi\n        .decode(data, (address, uint256, uint256, address, bytes, bytes));\n        uint256 balanceAfter = IERC20(flashToken).balanceOf(address(this));\n        require(\n            balanceAfter - balanceBefore == flashAmount,\n            \"contract did not get the loan\"\n        );\n        loan = balanceAfter;\n\n        // do whatever you want with the money\n        // the dept will be automatically withdrawn from this contract at the end of execution\n        _arb(flashToken, arbToken, flashAmount, zrxData, oneInchData);\n    }\n\n    function arb(address _fromToken, address _toToken, uint256 _fromAmount, bytes memory _0xData, bytes memory _oneInchData) onlyOwner payable public {\n        _arb(_fromToken, _toToken, _fromAmount, _0xData, _oneInchData);\n    }\n\n    function _arb(address _fromToken, address _toToken, uint256 _fromAmount, bytes memory _0xData, bytes memory _oneInchData) internal {\n        // Track original balance\n        uint256 _startBalance = IERC20(_fromToken).balanceOf(address(this));\n\n        // Perform the arb trade\n        _trade(_fromToken, _toToken, _fromAmount, _0xData, _oneInchData);\n\n        // Track result balance\n        uint256 _endBalance = IERC20(_fromToken).balanceOf(address(this));\n\n        // Require that arbitrage is profitable\n        require(_endBalance > _startBalance, \"End balance must exceed start balance.\");\n    }\n\n    function trade(address _fromToken, address _toToken, uint256 _fromAmount, bytes memory _0xData, bytes memory _1inchData) onlyOwner payable public {\n        _trade(_fromToken, _toToken, _fromAmount, _0xData, _1inchData);\n    }\n\n    function _trade(address _fromToken, address _toToken, uint256 _fromAmount, bytes memory _0xData, bytes memory _1inchData) internal {\n        // Track the balance of the token RECEIVED from the trade\n        uint256 _beforeBalance = IERC20(_toToken).balanceOf(address(this));\n\n        // Swap on 0x: give _fromToken, receive _toToken\n        _zrxSwap(_fromToken, _fromAmount, _0xData);\n\n        // Calculate the how much of the token we received\n        uint256 _afterBalance = IERC20(_toToken).balanceOf(address(this));\n\n        // Read _toToken balance after swap\n        uint256 _toAmount = _afterBalance - _beforeBalance;\n\n        // Swap on 1Inch: give _toToken, receive _fromToken\n        // _oneInchSwap(_toToken, _toAmount, _1inchData);\n    }\n\n    function zrxSwap(address _from, uint256 _amount, bytes memory _calldataHexString) onlyOwner public payable {\n        _zrxSwap(_from, _amount, _calldataHexString);\n    }\n\n    function _zrxSwap(address _from, uint256 _amount, bytes memory _calldataHexString) internal {\n        // Approve tokens\n        IERC20 _fromIERC20 = IERC20(_from);\n        _fromIERC20.approve(ZRX_ERC20_PROXY_ADDRESS, _amount);\n\n        // Swap tokens\n        address(ZRX_EXCHANGE_ADDRESS).call.value(msg.value)(_calldataHexString);\n\n        // Reset approval\n        _fromIERC20.approve(ZRX_ERC20_PROXY_ADDRESS, 0);\n    }\n\n    function oneInchSwap(address _from, uint256 _amount, bytes memory _oneInchCallData) onlyOwner public payable {\n        _oneInchSwap(_from, _amount, _oneInchCallData);\n    }\n\n    //_oneInchCalldata is a tx data from /swap endpoint of 1inch api\n    function _oneInchSwap(address _from, uint256 _amount, bytes memory _oneInchCallData) internal {\n        // Setup contracts\n        IERC20 _fromIERC20 = IERC20(_from);\n\n        // Approve tokens\n        _fromIERC20.approve(ONE_INCH_ADDRESS, _amount);\n\n        // Swap tokens: give _from, get _to\n        ONE_INCH_ADDRESS.call.value(msg.value)(_oneInchCallData);\n\n        // Reset approval\n        _fromIERC20.approve(ONE_INCH_ADDRESS, 0);\n    }\n\n    function getWeth() public payable onlyOwner {\n        _getWeth(msg.value);\n    }\n\n    function _getWeth(uint256 _amount) internal {\n        (bool success,) = WETH.call.value(_amount)(\"\");\n        require(success, \"failed to get weth\");\n    }\n\n    function approveWeth(uint256 _amount) public onlyOwner {\n        _approveWeth(_amount);\n    }\n\n    function _approveWeth(uint256 _amount) internal {\n        IERC20(WETH).approve(ZRX_STAKING_PROXY, _amount);\n    }\n\n    // KEEP THIS FUNCTION IN CASE THE CONTRACT RECEIVES TOKENS!\n    function withdrawToken(address _tokenAddress) public onlyOwner {\n        uint256 balance = IERC20(_tokenAddress).balanceOf(address(this));\n        IERC20(_tokenAddress).transfer(OWNER, balance);\n    }\n\n    // KEEP THIS FUNCTION IN CASE THE CONTRACT KEEPS LEFTOVER ETHER!\n    function withdrawEther() public onlyOwner {\n        address self = address(this);\n        // workaround for a possible solidity bug\n        uint256 balance = self.balance;\n        address(OWNER).transfer(balance);\n    }\n}",
  "sourcePath": "/Users/kirillmadorin/Desktop/Projects/1inch-hack/arb-bot/contracts/TradingBot.sol",
  "compiler": {
    "name": "solc",
    "version": "0.5.16+commit.9c3226ce.Emscripten.clang"
  },
  "schemaVersion": "3.3.2",
  "updatedAt": "2020-12-17T19:04:24.824Z",
  "networkType": "ethereum",
  "devdoc": {
    "methods": {}
  },
  "userdoc": {
    "methods": {}
  }
}